{
  "contractName": "Coin",
  "abi": [
    {
      "inputs": [],
      "stateMutability": "nonpayable",
      "type": "constructor"
    },
    {
      "anonymous": false,
      "inputs": [
        {
          "indexed": true,
          "internalType": "address",
          "name": "owner",
          "type": "address"
        },
        {
          "indexed": true,
          "internalType": "address",
          "name": "spender",
          "type": "address"
        },
        {
          "indexed": false,
          "internalType": "uint256",
          "name": "value",
          "type": "uint256"
        }
      ],
      "name": "Approval",
      "type": "event"
    },
    {
      "anonymous": false,
      "inputs": [
        {
          "indexed": true,
          "internalType": "address",
          "name": "from",
          "type": "address"
        },
        {
          "indexed": true,
          "internalType": "address",
          "name": "to",
          "type": "address"
        },
        {
          "indexed": false,
          "internalType": "uint256",
          "name": "value",
          "type": "uint256"
        }
      ],
      "name": "Transfer",
      "type": "event"
    },
    {
      "inputs": [],
      "name": "VERSION",
      "outputs": [
        {
          "internalType": "uint32",
          "name": "",
          "type": "uint32"
        }
      ],
      "stateMutability": "view",
      "type": "function",
      "constant": true
    },
    {
      "inputs": [
        {
          "internalType": "address",
          "name": "owner",
          "type": "address"
        },
        {
          "internalType": "address",
          "name": "spender",
          "type": "address"
        }
      ],
      "name": "allowance",
      "outputs": [
        {
          "internalType": "uint256",
          "name": "",
          "type": "uint256"
        }
      ],
      "stateMutability": "view",
      "type": "function",
      "constant": true
    },
    {
      "inputs": [
        {
          "internalType": "address",
          "name": "spender",
          "type": "address"
        },
        {
          "internalType": "uint256",
          "name": "amount",
          "type": "uint256"
        }
      ],
      "name": "approve",
      "outputs": [
        {
          "internalType": "bool",
          "name": "",
          "type": "bool"
        }
      ],
      "stateMutability": "nonpayable",
      "type": "function"
    },
    {
      "inputs": [
        {
          "internalType": "address",
          "name": "account",
          "type": "address"
        }
      ],
      "name": "balanceOf",
      "outputs": [
        {
          "internalType": "uint256",
          "name": "",
          "type": "uint256"
        }
      ],
      "stateMutability": "view",
      "type": "function",
      "constant": true
    },
    {
      "inputs": [],
      "name": "decimals",
      "outputs": [
        {
          "internalType": "uint8",
          "name": "",
          "type": "uint8"
        }
      ],
      "stateMutability": "view",
      "type": "function",
      "constant": true
    },
    {
      "inputs": [
        {
          "internalType": "address",
          "name": "spender",
          "type": "address"
        },
        {
          "internalType": "uint256",
          "name": "subtractedValue",
          "type": "uint256"
        }
      ],
      "name": "decreaseAllowance",
      "outputs": [
        {
          "internalType": "bool",
          "name": "",
          "type": "bool"
        }
      ],
      "stateMutability": "nonpayable",
      "type": "function"
    },
    {
      "inputs": [
        {
          "internalType": "address",
          "name": "spender",
          "type": "address"
        },
        {
          "internalType": "uint256",
          "name": "addedValue",
          "type": "uint256"
        }
      ],
      "name": "increaseAllowance",
      "outputs": [
        {
          "internalType": "bool",
          "name": "",
          "type": "bool"
        }
      ],
      "stateMutability": "nonpayable",
      "type": "function"
    },
    {
      "inputs": [],
      "name": "name",
      "outputs": [
        {
          "internalType": "string",
          "name": "",
          "type": "string"
        }
      ],
      "stateMutability": "view",
      "type": "function",
      "constant": true
    },
    {
      "inputs": [],
      "name": "symbol",
      "outputs": [
        {
          "internalType": "string",
          "name": "",
          "type": "string"
        }
      ],
      "stateMutability": "view",
      "type": "function",
      "constant": true
    },
    {
      "inputs": [],
      "name": "totalSupply",
      "outputs": [
        {
          "internalType": "uint256",
          "name": "",
          "type": "uint256"
        }
      ],
      "stateMutability": "view",
      "type": "function",
      "constant": true
    },
    {
      "inputs": [
        {
          "internalType": "address",
          "name": "recipient",
          "type": "address"
        },
        {
          "internalType": "uint256",
          "name": "amount",
          "type": "uint256"
        }
      ],
      "name": "transfer",
      "outputs": [
        {
          "internalType": "bool",
          "name": "",
          "type": "bool"
        }
      ],
      "stateMutability": "nonpayable",
      "type": "function"
    },
    {
      "inputs": [
        {
          "internalType": "address",
          "name": "sender",
          "type": "address"
        },
        {
          "internalType": "address",
          "name": "recipient",
          "type": "address"
        },
        {
          "internalType": "uint256",
          "name": "amount",
          "type": "uint256"
        }
      ],
      "name": "transferFrom",
      "outputs": [
        {
          "internalType": "bool",
          "name": "",
          "type": "bool"
        }
      ],
      "stateMutability": "nonpayable",
      "type": "function"
    }
  ],
  "bytecode": "0x60806040523480156200001157600080fd5b506040518060400160405280600481526020017f436f696e000000000000000000000000000000000000000000000000000000008152506040518060400160405280600481526020017f434f494e0000000000000000000000000000000000000000000000000000000081525081600390805190602001906200009692919062000270565b508060049080519060200190620000af92919062000270565b505050620000e733601260ff16600a620000ca9190620004ad565b6359682f00620000db9190620004fe565b620000ed60201b60201c565b620006d2565b600073ffffffffffffffffffffffffffffffffffffffff168273ffffffffffffffffffffffffffffffffffffffff16141562000160576040517f08c379a00000000000000000000000000000000000000000000000000000000081526004016200015790620005c0565b60405180910390fd5b62000174600083836200026660201b60201c565b8060026000828254620001889190620005e2565b92505081905550806000808473ffffffffffffffffffffffffffffffffffffffff1673ffffffffffffffffffffffffffffffffffffffff1681526020019081526020016000206000828254620001df9190620005e2565b925050819055508173ffffffffffffffffffffffffffffffffffffffff16600073ffffffffffffffffffffffffffffffffffffffff167fddf252ad1be2c89b69c2b068fc378daa952ba7f163c4a11628f55a4df523b3ef8360405162000246919062000650565b60405180910390a362000262600083836200026b60201b60201c565b5050565b505050565b505050565b8280546200027e906200069c565b90600052602060002090601f016020900481019282620002a25760008555620002ee565b82601f10620002bd57805160ff1916838001178555620002ee565b82800160010185558215620002ee579182015b82811115620002ed578251825591602001919060010190620002d0565b5b509050620002fd919062000301565b5090565b5b808211156200031c57600081600090555060010162000302565b5090565b7f4e487b7100000000000000000000000000000000000000000000000000000000600052601160045260246000fd5b60008160011c9050919050565b6000808291508390505b6001851115620003ae5780860481111562000386576200038562000320565b5b6001851615620003965780820291505b8081029050620003a6856200034f565b945062000366565b94509492505050565b600082620003c957600190506200049c565b81620003d957600090506200049c565b8160018114620003f25760028114620003fd5762000433565b60019150506200049c565b60ff84111562000412576200041162000320565b5b8360020a9150848211156200042c576200042b62000320565b5b506200049c565b5060208310610133831016604e8410600b84101617156200046d5782820a90508381111562000467576200046662000320565b5b6200049c565b6200047c84848460016200035c565b9250905081840481111562000496576200049562000320565b5b81810290505b9392505050565b6000819050919050565b6000620004ba82620004a3565b9150620004c783620004a3565b9250620004f67fffffffffffffffffffffffffffffffffffffffffffffffffffffffffffffffff8484620003b7565b905092915050565b60006200050b82620004a3565b91506200051883620004a3565b9250817fffffffffffffffffffffffffffffffffffffffffffffffffffffffffffffffff048311821515161562000554576200055362000320565b5b828202905092915050565b600082825260208201905092915050565b7f45524332303a206d696e7420746f20746865207a65726f206164647265737300600082015250565b6000620005a8601f836200055f565b9150620005b58262000570565b602082019050919050565b60006020820190508181036000830152620005db8162000599565b9050919050565b6000620005ef82620004a3565b9150620005fc83620004a3565b9250827fffffffffffffffffffffffffffffffffffffffffffffffffffffffffffffffff0382111562000634576200063362000320565b5b828201905092915050565b6200064a81620004a3565b82525050565b60006020820190506200066760008301846200063f565b92915050565b7f4e487b7100000000000000000000000000000000000000000000000000000000600052602260045260246000fd5b60006002820490506001821680620006b557607f821691505b60208210811415620006cc57620006cb6200066d565b5b50919050565b61141280620006e26000396000f3fe608060405234801561001057600080fd5b50600436106100b45760003560e01c806370a082311161007157806370a08231146101a357806395d89b41146101d3578063a457c2d7146101f1578063a9059cbb14610221578063dd62ed3e14610251578063ffa1ad7414610281576100b4565b806306fdde03146100b9578063095ea7b3146100d757806318160ddd1461010757806323b872dd14610125578063313ce567146101555780633950935114610173575b600080fd5b6100c161029f565b6040516100ce9190610c6c565b60405180910390f35b6100f160048036038101906100ec9190610d27565b610331565b6040516100fe9190610d82565b60405180910390f35b61010f61034f565b60405161011c9190610dac565b60405180910390f35b61013f600480360381019061013a9190610dc7565b610359565b60405161014c9190610d82565b60405180910390f35b61015d610451565b60405161016a9190610e36565b60405180910390f35b61018d60048036038101906101889190610d27565b61045a565b60405161019a9190610d82565b60405180910390f35b6101bd60048036038101906101b89190610e51565b610506565b6040516101ca9190610dac565b60405180910390f35b6101db61054e565b6040516101e89190610c6c565b60405180910390f35b61020b60048036038101906102069190610d27565b6105e0565b6040516102189190610d82565b60405180910390f35b61023b60048036038101906102369190610d27565b6106cb565b6040516102489190610d82565b60405180910390f35b61026b60048036038101906102669190610e7e565b6106e9565b6040516102789190610dac565b60405180910390f35b610289610770565b6040516102969190610edd565b60405180910390f35b6060600380546102ae90610f27565b80601f01602080910402602001604051908101604052809291908181526020018280546102da90610f27565b80156103275780601f106102fc57610100808354040283529160200191610327565b820191906000526020600020905b81548152906001019060200180831161030a57829003601f168201915b5050505050905090565b600061034561033e610775565b848461077d565b6001905092915050565b6000600254905090565b6000610366848484610948565b6000600160008673ffffffffffffffffffffffffffffffffffffffff1673ffffffffffffffffffffffffffffffffffffffff16815260200190815260200160002060006103b1610775565b73ffffffffffffffffffffffffffffffffffffffff1673ffffffffffffffffffffffffffffffffffffffff16815260200190815260200160002054905082811015610431576040517f08c379a000000000000000000000000000000000000000000000000000000000815260040161042890610fcb565b60405180910390fd5b6104458561043d610775565b85840361077d565b60019150509392505050565b60006012905090565b60006104fc610467610775565b848460016000610475610775565b73ffffffffffffffffffffffffffffffffffffffff1673ffffffffffffffffffffffffffffffffffffffff16815260200190815260200160002060008873ffffffffffffffffffffffffffffffffffffffff1673ffffffffffffffffffffffffffffffffffffffff168152602001908152602001600020546104f7919061101a565b61077d565b6001905092915050565b60008060008373ffffffffffffffffffffffffffffffffffffffff1673ffffffffffffffffffffffffffffffffffffffff168152602001908152602001600020549050919050565b60606004805461055d90610f27565b80601f016020809104026020016040519081016040528092919081815260200182805461058990610f27565b80156105d65780601f106105ab576101008083540402835291602001916105d6565b820191906000526020600020905b8154815290600101906020018083116105b957829003601f168201915b5050505050905090565b600080600160006105ef610775565b73ffffffffffffffffffffffffffffffffffffffff1673ffffffffffffffffffffffffffffffffffffffff16815260200190815260200160002060008573ffffffffffffffffffffffffffffffffffffffff1673ffffffffffffffffffffffffffffffffffffffff168152602001908152602001600020549050828110156106ac576040517f08c379a00000000000000000000000000000000000000000000000000000000081526004016106a3906110e2565b60405180910390fd5b6106c06106b7610775565b8585840361077d565b600191505092915050565b60006106df6106d8610775565b8484610948565b6001905092915050565b6000600160008473ffffffffffffffffffffffffffffffffffffffff1673ffffffffffffffffffffffffffffffffffffffff16815260200190815260200160002060008373ffffffffffffffffffffffffffffffffffffffff1673ffffffffffffffffffffffffffffffffffffffff16815260200190815260200160002054905092915050565b600181565b600033905090565b600073ffffffffffffffffffffffffffffffffffffffff168373ffffffffffffffffffffffffffffffffffffffff1614156107ed576040517f08c379a00000000000000000000000000000000000000000000000000000000081526004016107e490611174565b60405180910390fd5b600073ffffffffffffffffffffffffffffffffffffffff168273ffffffffffffffffffffffffffffffffffffffff16141561085d576040517f08c379a000000000000000000000000000000000000000000000000000000000815260040161085490611206565b60405180910390fd5b80600160008573ffffffffffffffffffffffffffffffffffffffff1673ffffffffffffffffffffffffffffffffffffffff16815260200190815260200160002060008473ffffffffffffffffffffffffffffffffffffffff1673ffffffffffffffffffffffffffffffffffffffff168152602001908152602001600020819055508173ffffffffffffffffffffffffffffffffffffffff168373ffffffffffffffffffffffffffffffffffffffff167f8c5be1e5ebec7d5bd14f71427d1e84f3dd0314c0f7b2291e5b200ac8c7c3b9258360405161093b9190610dac565b60405180910390a3505050565b600073ffffffffffffffffffffffffffffffffffffffff168373ffffffffffffffffffffffffffffffffffffffff1614156109b8576040517f08c379a00000000000000000000000000000000000000000000000000000000081526004016109af90611298565b60405180910390fd5b600073ffffffffffffffffffffffffffffffffffffffff168273ffffffffffffffffffffffffffffffffffffffff161415610a28576040517f08c379a0000000000000000000000000000000000000000000000000000000008152600401610a1f9061132a565b60405180910390fd5b610a33838383610bc9565b60008060008573ffffffffffffffffffffffffffffffffffffffff1673ffffffffffffffffffffffffffffffffffffffff16815260200190815260200160002054905081811015610ab9576040517f08c379a0000000000000000000000000000000000000000000000000000000008152600401610ab0906113bc565b60405180910390fd5b8181036000808673ffffffffffffffffffffffffffffffffffffffff1673ffffffffffffffffffffffffffffffffffffffff16815260200190815260200160002081905550816000808573ffffffffffffffffffffffffffffffffffffffff1673ffffffffffffffffffffffffffffffffffffffff1681526020019081526020016000206000828254610b4c919061101a565b925050819055508273ffffffffffffffffffffffffffffffffffffffff168473ffffffffffffffffffffffffffffffffffffffff167fddf252ad1be2c89b69c2b068fc378daa952ba7f163c4a11628f55a4df523b3ef84604051610bb09190610dac565b60405180910390a3610bc3848484610bce565b50505050565b505050565b505050565b600081519050919050565b600082825260208201905092915050565b60005b83811015610c0d578082015181840152602081019050610bf2565b83811115610c1c576000848401525b50505050565b6000601f19601f8301169050919050565b6000610c3e82610bd3565b610c488185610bde565b9350610c58818560208601610bef565b610c6181610c22565b840191505092915050565b60006020820190508181036000830152610c868184610c33565b905092915050565b600080fd5b600073ffffffffffffffffffffffffffffffffffffffff82169050919050565b6000610cbe82610c93565b9050919050565b610cce81610cb3565b8114610cd957600080fd5b50565b600081359050610ceb81610cc5565b92915050565b6000819050919050565b610d0481610cf1565b8114610d0f57600080fd5b50565b600081359050610d2181610cfb565b92915050565b60008060408385031215610d3e57610d3d610c8e565b5b6000610d4c85828601610cdc565b9250506020610d5d85828601610d12565b9150509250929050565b60008115159050919050565b610d7c81610d67565b82525050565b6000602082019050610d976000830184610d73565b92915050565b610da681610cf1565b82525050565b6000602082019050610dc16000830184610d9d565b92915050565b600080600060608486031215610de057610ddf610c8e565b5b6000610dee86828701610cdc565b9350506020610dff86828701610cdc565b9250506040610e1086828701610d12565b9150509250925092565b600060ff82169050919050565b610e3081610e1a565b82525050565b6000602082019050610e4b6000830184610e27565b92915050565b600060208284031215610e6757610e66610c8e565b5b6000610e7584828501610cdc565b91505092915050565b60008060408385031215610e9557610e94610c8e565b5b6000610ea385828601610cdc565b9250506020610eb485828601610cdc565b9150509250929050565b600063ffffffff82169050919050565b610ed781610ebe565b82525050565b6000602082019050610ef26000830184610ece565b92915050565b7f4e487b7100000000000000000000000000000000000000000000000000000000600052602260045260246000fd5b60006002820490506001821680610f3f57607f821691505b60208210811415610f5357610f52610ef8565b5b50919050565b7f45524332303a207472616e7366657220616d6f756e742065786365656473206160008201527f6c6c6f77616e6365000000000000000000000000000000000000000000000000602082015250565b6000610fb5602883610bde565b9150610fc082610f59565b604082019050919050565b60006020820190508181036000830152610fe481610fa8565b9050919050565b7f4e487b7100000000000000000000000000000000000000000000000000000000600052601160045260246000fd5b600061102582610cf1565b915061103083610cf1565b9250827fffffffffffffffffffffffffffffffffffffffffffffffffffffffffffffffff0382111561106557611064610feb565b5b828201905092915050565b7f45524332303a2064656372656173656420616c6c6f77616e63652062656c6f7760008201527f207a65726f000000000000000000000000000000000000000000000000000000602082015250565b60006110cc602583610bde565b91506110d782611070565b604082019050919050565b600060208201905081810360008301526110fb816110bf565b9050919050565b7f45524332303a20617070726f76652066726f6d20746865207a65726f2061646460008201527f7265737300000000000000000000000000000000000000000000000000000000602082015250565b600061115e602483610bde565b915061116982611102565b604082019050919050565b6000602082019050818103600083015261118d81611151565b9050919050565b7f45524332303a20617070726f766520746f20746865207a65726f20616464726560008201527f7373000000000000000000000000000000000000000000000000000000000000602082015250565b60006111f0602283610bde565b91506111fb82611194565b604082019050919050565b6000602082019050818103600083015261121f816111e3565b9050919050565b7f45524332303a207472616e736665722066726f6d20746865207a65726f20616460008201527f6472657373000000000000000000000000000000000000000000000000000000602082015250565b6000611282602583610bde565b915061128d82611226565b604082019050919050565b600060208201905081810360008301526112b181611275565b9050919050565b7f45524332303a207472616e7366657220746f20746865207a65726f206164647260008201527f6573730000000000000000000000000000000000000000000000000000000000602082015250565b6000611314602383610bde565b915061131f826112b8565b604082019050919050565b6000602082019050818103600083015261134381611307565b9050919050565b7f45524332303a207472616e7366657220616d6f756e742065786365656473206260008201527f616c616e63650000000000000000000000000000000000000000000000000000602082015250565b60006113a6602683610bde565b91506113b18261134a565b604082019050919050565b600060208201905081810360008301526113d581611399565b905091905056fea2646970667358221220e299091df539fa562e14a4fe4aa3d5728851ff860da651bd16c13c887936b68464736f6c634300080a0033",
  "immutableReferences": {},
  "source": "// SPDX-License-Identifier: MIT\npragma solidity ^0.8.9;\n\nimport \"@openzeppelin/contracts/token/ERC20/ERC20.sol\";\n\ncontract Coin is ERC20 {\n\n    uint32 public constant VERSION = 1;\n    uint8 private constant DECIMALS = 18;\n    uint256 private constant TOKEN_WEI = 10**uint256(DECIMALS);\n    uint256 private constant INITIAL_WHOLE_TOKENS = uint256(1.5 * (10**9));\n    uint256 private constant INITIAL_SUPPLY =\n        uint256(INITIAL_WHOLE_TOKENS) * uint256(TOKEN_WEI);\n\n    constructor() ERC20(\"Coin\", \"COIN\") {\n        _mint(msg.sender, INITIAL_SUPPLY);\n    }\n\n}",
  "sourcePath": "/home/badass/Documents/Cosmic/private_sale/contracts/Coin.sol",
  "compiler": {
    "name": "solc",
    "version": "0.8.10+commit.fc410830.Emscripten.clang"
  },
  "schemaVersion": "3.4.4",
  "updatedAt": "2022-02-07T14:07:10.729Z",
  "networkType": "ethereum",
  "devdoc": {
    "kind": "dev",
    "methods": {
      "allowance(address,address)": {
        "details": "See {IERC20-allowance}."
      },
      "approve(address,uint256)": {
        "details": "See {IERC20-approve}. Requirements: - `spender` cannot be the zero address."
      },
      "balanceOf(address)": {
        "details": "See {IERC20-balanceOf}."
      },
      "decimals()": {
        "details": "Returns the number of decimals used to get its user representation. For example, if `decimals` equals `2`, a balance of `505` tokens should be displayed to a user as `5.05` (`505 / 10 ** 2`). Tokens usually opt for a value of 18, imitating the relationship between Ether and Wei. This is the value {ERC20} uses, unless this function is overridden; NOTE: This information is only used for _display_ purposes: it in no way affects any of the arithmetic of the contract, including {IERC20-balanceOf} and {IERC20-transfer}."
      },
      "decreaseAllowance(address,uint256)": {
        "details": "Atomically decreases the allowance granted to `spender` by the caller. This is an alternative to {approve} that can be used as a mitigation for problems described in {IERC20-approve}. Emits an {Approval} event indicating the updated allowance. Requirements: - `spender` cannot be the zero address. - `spender` must have allowance for the caller of at least `subtractedValue`."
      },
      "increaseAllowance(address,uint256)": {
        "details": "Atomically increases the allowance granted to `spender` by the caller. This is an alternative to {approve} that can be used as a mitigation for problems described in {IERC20-approve}. Emits an {Approval} event indicating the updated allowance. Requirements: - `spender` cannot be the zero address."
      },
      "name()": {
        "details": "Returns the name of the token."
      },
      "symbol()": {
        "details": "Returns the symbol of the token, usually a shorter version of the name."
      },
      "totalSupply()": {
        "details": "See {IERC20-totalSupply}."
      },
      "transfer(address,uint256)": {
        "details": "See {IERC20-transfer}. Requirements: - `recipient` cannot be the zero address. - the caller must have a balance of at least `amount`."
      },
      "transferFrom(address,address,uint256)": {
        "details": "See {IERC20-transferFrom}. Emits an {Approval} event indicating the updated allowance. This is not required by the EIP. See the note at the beginning of {ERC20}. Requirements: - `sender` and `recipient` cannot be the zero address. - `sender` must have a balance of at least `amount`. - the caller must have allowance for ``sender``'s tokens of at least `amount`."
      }
    },
    "version": 1
  },
  "userdoc": {
    "kind": "user",
    "methods": {},
    "version": 1
  }
}