{
  "contractName": "Invest",
  "abi": [
    {
      "inputs": [
        {
          "internalType": "address",
          "name": "_coin",
          "type": "address"
        },
        {
          "internalType": "uint256",
          "name": "_maxAmount",
          "type": "uint256"
        },
        {
          "internalType": "uint256",
          "name": "_rare",
          "type": "uint256"
        },
        {
          "internalType": "uint256",
          "name": "_epic",
          "type": "uint256"
        },
        {
          "internalType": "uint256",
          "name": "_legendary",
          "type": "uint256"
        }
      ],
      "stateMutability": "nonpayable",
      "type": "constructor"
    },
    {
      "inputs": [],
      "name": "MAXAMOUNT",
      "outputs": [
        {
          "internalType": "uint256",
          "name": "",
          "type": "uint256"
        }
      ],
      "stateMutability": "view",
      "type": "function",
      "constant": true
    },
    {
      "inputs": [
        {
          "internalType": "address",
          "name": "",
          "type": "address"
        }
      ],
      "name": "amountPaid",
      "outputs": [
        {
          "internalType": "uint256",
          "name": "",
          "type": "uint256"
        }
      ],
      "stateMutability": "view",
      "type": "function",
      "constant": true
    },
    {
      "inputs": [],
      "name": "coin",
      "outputs": [
        {
          "internalType": "address",
          "name": "",
          "type": "address"
        }
      ],
      "stateMutability": "view",
      "type": "function",
      "constant": true
    },
    {
      "inputs": [
        {
          "internalType": "uint256",
          "name": "",
          "type": "uint256"
        }
      ],
      "name": "lootBox",
      "outputs": [
        {
          "internalType": "uint256",
          "name": "",
          "type": "uint256"
        }
      ],
      "stateMutability": "view",
      "type": "function",
      "constant": true
    },
    {
      "inputs": [],
      "name": "owner",
      "outputs": [
        {
          "internalType": "address",
          "name": "",
          "type": "address"
        }
      ],
      "stateMutability": "view",
      "type": "function",
      "constant": true
    },
    {
      "inputs": [
        {
          "internalType": "uint256",
          "name": "",
          "type": "uint256"
        }
      ],
      "name": "tokens",
      "outputs": [
        {
          "internalType": "address",
          "name": "",
          "type": "address"
        }
      ],
      "stateMutability": "view",
      "type": "function",
      "constant": true
    },
    {
      "inputs": [],
      "name": "totalInvested",
      "outputs": [
        {
          "internalType": "uint256",
          "name": "",
          "type": "uint256"
        }
      ],
      "stateMutability": "view",
      "type": "function",
      "constant": true
    },
    {
      "inputs": [
        {
          "internalType": "address",
          "name": "",
          "type": "address"
        }
      ],
      "name": "whitelist",
      "outputs": [
        {
          "internalType": "bool",
          "name": "",
          "type": "bool"
        }
      ],
      "stateMutability": "view",
      "type": "function",
      "constant": true
    },
    {
      "inputs": [
        {
          "internalType": "address",
          "name": "_coin",
          "type": "address"
        }
      ],
      "name": "setCoin",
      "outputs": [],
      "stateMutability": "nonpayable",
      "type": "function"
    },
    {
      "inputs": [
        {
          "internalType": "address[]",
          "name": "_users",
          "type": "address[]"
        }
      ],
      "name": "setWhitelist",
      "outputs": [],
      "stateMutability": "nonpayable",
      "type": "function"
    },
    {
      "inputs": [
        {
          "internalType": "address[]",
          "name": "_users",
          "type": "address[]"
        }
      ],
      "name": "removeWhitelist",
      "outputs": [],
      "stateMutability": "nonpayable",
      "type": "function"
    },
    {
      "inputs": [
        {
          "internalType": "uint256",
          "name": "_maxAmount",
          "type": "uint256"
        }
      ],
      "name": "setMaxAmount",
      "outputs": [],
      "stateMutability": "nonpayable",
      "type": "function"
    },
    {
      "inputs": [
        {
          "internalType": "uint256",
          "name": "_rare",
          "type": "uint256"
        },
        {
          "internalType": "uint256",
          "name": "_epic",
          "type": "uint256"
        },
        {
          "internalType": "uint256",
          "name": "_legendary",
          "type": "uint256"
        }
      ],
      "name": "setLootBoxValue",
      "outputs": [],
      "stateMutability": "nonpayable",
      "type": "function"
    },
    {
      "inputs": [
        {
          "internalType": "address",
          "name": "_rare",
          "type": "address"
        },
        {
          "internalType": "address",
          "name": "_epic",
          "type": "address"
        },
        {
          "internalType": "address",
          "name": "_legendary",
          "type": "address"
        },
        {
          "internalType": "address",
          "name": "_cosmic",
          "type": "address"
        }
      ],
      "name": "setTokens",
      "outputs": [],
      "stateMutability": "nonpayable",
      "type": "function"
    },
    {
      "inputs": [
        {
          "internalType": "uint256",
          "name": "_amount",
          "type": "uint256"
        }
      ],
      "name": "invest",
      "outputs": [],
      "stateMutability": "nonpayable",
      "type": "function"
    },
    {
      "inputs": [],
      "name": "withdrawCoin",
      "outputs": [],
      "stateMutability": "nonpayable",
      "type": "function"
    }
  ],
  "bytecode": "0x608060405260006002553480156200001657600080fd5b50604051620020ba380380620020ba83398181016040528101906200003c9190620001ce565b336000806101000a81548173ffffffffffffffffffffffffffffffffffffffff021916908373ffffffffffffffffffffffffffffffffffffffff16021790555084600160006101000a81548173ffffffffffffffffffffffffffffffffffffffff021916908373ffffffffffffffffffffffffffffffffffffffff16021790555083600281905550826005600060048110620000dd57620000dc62000256565b5b0181905550816005600160048110620000fb57620000fa62000256565b5b018190555080600560026004811062000119576200011862000256565b5b0181905550505050505062000285565b600080fd5b600073ffffffffffffffffffffffffffffffffffffffff82169050919050565b60006200015b826200012e565b9050919050565b6200016d816200014e565b81146200017957600080fd5b50565b6000815190506200018d8162000162565b92915050565b6000819050919050565b620001a88162000193565b8114620001b457600080fd5b50565b600081519050620001c8816200019d565b92915050565b600080600080600060a08688031215620001ed57620001ec62000129565b5b6000620001fd888289016200017c565b95505060206200021088828901620001b7565b94505060406200022388828901620001b7565b93505060606200023688828901620001b7565b92505060806200024988828901620001b7565b9150509295509295909350565b7f4e487b7100000000000000000000000000000000000000000000000000000000600052603260045260246000fd5b611e2580620002956000396000f3fe608060405234801561001057600080fd5b50600436106101005760003560e01c80636216a058116100975780638da5cb5b116100665780638da5cb5b146102835780638e66dfd8146102a15780639b19251a146102bf578063f4217648146102ef57610100565b80636216a058146101fd5780636220aea81461022d57806382e46b7514610237578063879cb32e1461025357610100565b80634f64b2be116100d35780634f64b2be146101775780634fe47f70146101a75780635216aeec146101c3578063537820bf146101e157610100565b806311df99951461010557806323245216146101235780632afcf4801461013f5780632e4bced61461015b575b600080fd5b61010d61030b565b60405161011a9190611666565b60405180910390f35b61013d6004803603810190610138919061181a565b610331565b005b61015960048036038101906101549190611899565b61041e565b005b610175600480360381019061017091906118c6565b610969565b005b610191600480360381019061018c9190611899565b610a17565b60405161019e9190611666565b60405180910390f35b6101c160048036038101906101bc9190611899565b610a4d565b005b6101cb610aaf565b6040516101d89190611928565b60405180910390f35b6101fb60048036038101906101f69190611943565b610ab5565b005b61021760048036038101906102129190611899565b610d4c565b6040516102249190611928565b60405180910390f35b610235610d67565b005b610251600480360381019061024c91906119aa565b610f03565b005b61026d600480360381019061026891906119aa565b610f9f565b60405161027a9190611928565b60405180910390f35b61028b610fb7565b6040516102989190611666565b60405180910390f35b6102a9610fdb565b6040516102b69190611928565b60405180910390f35b6102d960048036038101906102d491906119aa565b610fe1565b6040516102e691906119f2565b60405180910390f35b6103096004803603810190610304919061181a565b611001565b005b600160009054906101000a900473ffffffffffffffffffffffffffffffffffffffff1681565b60008054906101000a900473ffffffffffffffffffffffffffffffffffffffff1673ffffffffffffffffffffffffffffffffffffffff163373ffffffffffffffffffffffffffffffffffffffff161461038957600080fd5b60005b815181101561041a576000600460008484815181106103ae576103ad611a0d565b5b602002602001015173ffffffffffffffffffffffffffffffffffffffff1673ffffffffffffffffffffffffffffffffffffffff16815260200190815260200160002060006101000a81548160ff021916908315150217905550808061041290611a6b565b91505061038c565b5050565b600460003373ffffffffffffffffffffffffffffffffffffffff1673ffffffffffffffffffffffffffffffffffffffff16815260200190815260200160002060009054906101000a900460ff166104aa576040517f08c379a00000000000000000000000000000000000000000000000000000000081526004016104a190611b11565b60405180910390fd5b600073ffffffffffffffffffffffffffffffffffffffff1660096000600481106104d7576104d6611a0d565b5b0160009054906101000a900473ffffffffffffffffffffffffffffffffffffffff1673ffffffffffffffffffffffffffffffffffffffff16141580156105805750600073ffffffffffffffffffffffffffffffffffffffff16600960016004811061054557610544611a0d565b5b0160009054906101000a900473ffffffffffffffffffffffffffffffffffffffff1673ffffffffffffffffffffffffffffffffffffffff1614155b80156105ef5750600073ffffffffffffffffffffffffffffffffffffffff1660096002600481106105b4576105b3611a0d565b5b0160009054906101000a900473ffffffffffffffffffffffffffffffffffffffff1673ffffffffffffffffffffffffffffffffffffffff1614155b801561065e5750600073ffffffffffffffffffffffffffffffffffffffff16600960036004811061062357610622611a0d565b5b0160009054906101000a900473ffffffffffffffffffffffffffffffffffffffff1673ffffffffffffffffffffffffffffffffffffffff1614155b61069d576040517f08c379a000000000000000000000000000000000000000000000000000000000815260040161069490611b7d565b60405180910390fd5b60025481600360003373ffffffffffffffffffffffffffffffffffffffff1673ffffffffffffffffffffffffffffffffffffffff168152602001908152602001600020546106eb9190611b9d565b111561072c576040517f08c379a000000000000000000000000000000000000000000000000000000000815260040161072390611c3f565b60405180910390fd5b6000600160009054906101000a900473ffffffffffffffffffffffffffffffffffffffff1673ffffffffffffffffffffffffffffffffffffffff1663dd62ed3e33306040518363ffffffff1660e01b815260040161078b929190611c5f565b602060405180830381865afa1580156107a8573d6000803e3d6000fd5b505050506040513d601f19601f820116820180604052508101906107cc9190611c9d565b905081811015610811576040517f08c379a000000000000000000000000000000000000000000000000000000000815260040161080890611d16565b60405180910390fd5b600160009054906101000a900473ffffffffffffffffffffffffffffffffffffffff1673ffffffffffffffffffffffffffffffffffffffff166323b872dd3330856040518463ffffffff1660e01b815260040161087093929190611d36565b6020604051808303816000875af115801561088f573d6000803e3d6000fd5b505050506040513d601f19601f820116820180604052508101906108b39190611d99565b5081600360003373ffffffffffffffffffffffffffffffffffffffff1673ffffffffffffffffffffffffffffffffffffffff168152602001908152602001600020546108ff9190611b9d565b600360003373ffffffffffffffffffffffffffffffffffffffff1673ffffffffffffffffffffffffffffffffffffffff1681526020019081526020016000208190555061094c33836110ee565b81600d600082825461095e9190611b9d565b925050819055505050565b60008054906101000a900473ffffffffffffffffffffffffffffffffffffffff1673ffffffffffffffffffffffffffffffffffffffff163373ffffffffffffffffffffffffffffffffffffffff16146109c157600080fd5b8260056000600481106109d7576109d6611a0d565b5b01819055508160056001600481106109f2576109f1611a0d565b5b0181905550806005600260048110610a0d57610a0c611a0d565b5b0181905550505050565b60098160048110610a2757600080fd5b016000915054906101000a900473ffffffffffffffffffffffffffffffffffffffff1681565b60008054906101000a900473ffffffffffffffffffffffffffffffffffffffff1673ffffffffffffffffffffffffffffffffffffffff163373ffffffffffffffffffffffffffffffffffffffff1614610aa557600080fd5b8060028190555050565b600d5481565b60008054906101000a900473ffffffffffffffffffffffffffffffffffffffff1673ffffffffffffffffffffffffffffffffffffffff163373ffffffffffffffffffffffffffffffffffffffff1614610b0d57600080fd5b600073ffffffffffffffffffffffffffffffffffffffff168473ffffffffffffffffffffffffffffffffffffffff1614158015610b775750600073ffffffffffffffffffffffffffffffffffffffff168373ffffffffffffffffffffffffffffffffffffffff1614155b8015610bb05750600073ffffffffffffffffffffffffffffffffffffffff168273ffffffffffffffffffffffffffffffffffffffff1614155b8015610be95750600073ffffffffffffffffffffffffffffffffffffffff168173ffffffffffffffffffffffffffffffffffffffff1614155b610bf257600080fd5b836009600060048110610c0857610c07611a0d565b5b0160006101000a81548173ffffffffffffffffffffffffffffffffffffffff021916908373ffffffffffffffffffffffffffffffffffffffff160217905550826009600160048110610c5d57610c5c611a0d565b5b0160006101000a81548173ffffffffffffffffffffffffffffffffffffffff021916908373ffffffffffffffffffffffffffffffffffffffff160217905550816009600260048110610cb257610cb1611a0d565b5b0160006101000a81548173ffffffffffffffffffffffffffffffffffffffff021916908373ffffffffffffffffffffffffffffffffffffffff160217905550806009600360048110610d0757610d06611a0d565b5b0160006101000a81548173ffffffffffffffffffffffffffffffffffffffff021916908373ffffffffffffffffffffffffffffffffffffffff16021790555050505050565b60058160048110610d5c57600080fd5b016000915090505481565b60008054906101000a900473ffffffffffffffffffffffffffffffffffffffff1673ffffffffffffffffffffffffffffffffffffffff163373ffffffffffffffffffffffffffffffffffffffff1614610dbf57600080fd5b6000600160009054906101000a900473ffffffffffffffffffffffffffffffffffffffff1673ffffffffffffffffffffffffffffffffffffffff166370a08231306040518263ffffffff1660e01b8152600401610e1c9190611666565b602060405180830381865afa158015610e39573d6000803e3d6000fd5b505050506040513d601f19601f82011682018060405250810190610e5d9190611c9d565b9050600160009054906101000a900473ffffffffffffffffffffffffffffffffffffffff1673ffffffffffffffffffffffffffffffffffffffff1663a9059cbb33836040518363ffffffff1660e01b8152600401610ebc929190611dc6565b6020604051808303816000875af1158015610edb573d6000803e3d6000fd5b505050506040513d601f19601f82011682018060405250810190610eff9190611d99565b5050565b60008054906101000a900473ffffffffffffffffffffffffffffffffffffffff1673ffffffffffffffffffffffffffffffffffffffff163373ffffffffffffffffffffffffffffffffffffffff1614610f5b57600080fd5b80600160006101000a81548173ffffffffffffffffffffffffffffffffffffffff021916908373ffffffffffffffffffffffffffffffffffffffff16021790555050565b60036020528060005260406000206000915090505481565b60008054906101000a900473ffffffffffffffffffffffffffffffffffffffff1681565b60025481565b60046020528060005260406000206000915054906101000a900460ff1681565b60008054906101000a900473ffffffffffffffffffffffffffffffffffffffff1673ffffffffffffffffffffffffffffffffffffffff163373ffffffffffffffffffffffffffffffffffffffff161461105957600080fd5b60005b81518110156110ea5760016004600084848151811061107e5761107d611a0d565b5b602002602001015173ffffffffffffffffffffffffffffffffffffffff1673ffffffffffffffffffffffffffffffffffffffff16815260200190815260200160002060006101000a81548160ff02191690831515021790555080806110e290611a6b565b91505061105c565b5050565b600073ffffffffffffffffffffffffffffffffffffffff16600960006004811061111b5761111a611a0d565b5b0160009054906101000a900473ffffffffffffffffffffffffffffffffffffffff1673ffffffffffffffffffffffffffffffffffffffff16141580156111c45750600073ffffffffffffffffffffffffffffffffffffffff16600960016004811061118957611188611a0d565b5b0160009054906101000a900473ffffffffffffffffffffffffffffffffffffffff1673ffffffffffffffffffffffffffffffffffffffff1614155b80156112335750600073ffffffffffffffffffffffffffffffffffffffff1660096002600481106111f8576111f7611a0d565b5b0160009054906101000a900473ffffffffffffffffffffffffffffffffffffffff1673ffffffffffffffffffffffffffffffffffffffff1614155b80156112a25750600073ffffffffffffffffffffffffffffffffffffffff16600960036004811061126757611266611a0d565b5b0160009054906101000a900473ffffffffffffffffffffffffffffffffffffffff1673ffffffffffffffffffffffffffffffffffffffff1614155b6112e1576040517f08c379a00000000000000000000000000000000000000000000000000000000081526004016112d890611b7d565b60405180910390fd5b60056000600481106112f6576112f5611a0d565b5b01548110156113b957600960006004811061131457611313611a0d565b5b0160009054906101000a900473ffffffffffffffffffffffffffffffffffffffff1673ffffffffffffffffffffffffffffffffffffffff166340c10f1983836040518363ffffffff1660e01b8152600401611370929190611dc6565b6020604051808303816000875af115801561138f573d6000803e3d6000fd5b505050506040513d601f19601f820116820180604052508101906113b39190611d99565b50611621565b60056001600481106113ce576113cd611a0d565b5b01548110156114915760096001600481106113ec576113eb611a0d565b5b0160009054906101000a900473ffffffffffffffffffffffffffffffffffffffff1673ffffffffffffffffffffffffffffffffffffffff166340c10f1983836040518363ffffffff1660e01b8152600401611448929190611dc6565b6020604051808303816000875af1158015611467573d6000803e3d6000fd5b505050506040513d601f19601f8201168201806040525081019061148b9190611d99565b50611620565b60056002600481106114a6576114a5611a0d565b5b01548110156115695760096002600481106114c4576114c3611a0d565b5b0160009054906101000a900473ffffffffffffffffffffffffffffffffffffffff1673ffffffffffffffffffffffffffffffffffffffff166340c10f1983836040518363ffffffff1660e01b8152600401611520929190611dc6565b6020604051808303816000875af115801561153f573d6000803e3d6000fd5b505050506040513d601f19601f820116820180604052508101906115639190611d99565b5061161f565b600960036004811061157e5761157d611a0d565b5b0160009054906101000a900473ffffffffffffffffffffffffffffffffffffffff1673ffffffffffffffffffffffffffffffffffffffff166340c10f1983836040518363ffffffff1660e01b81526004016115da929190611dc6565b6020604051808303816000875af11580156115f9573d6000803e3d6000fd5b505050506040513d601f19601f8201168201806040525081019061161d9190611d99565b505b5b5b5050565b600073ffffffffffffffffffffffffffffffffffffffff82169050919050565b600061165082611625565b9050919050565b61166081611645565b82525050565b600060208201905061167b6000830184611657565b92915050565b6000604051905090565b600080fd5b600080fd5b600080fd5b6000601f19601f8301169050919050565b7f4e487b7100000000000000000000000000000000000000000000000000000000600052604160045260246000fd5b6116e38261169a565b810181811067ffffffffffffffff82111715611702576117016116ab565b5b80604052505050565b6000611715611681565b905061172182826116da565b919050565b600067ffffffffffffffff821115611741576117406116ab565b5b602082029050602081019050919050565b600080fd5b61176081611645565b811461176b57600080fd5b50565b60008135905061177d81611757565b92915050565b600061179661179184611726565b61170b565b905080838252602082019050602084028301858111156117b9576117b8611752565b5b835b818110156117e257806117ce888261176e565b8452602084019350506020810190506117bb565b5050509392505050565b600082601f83011261180157611800611695565b5b8135611811848260208601611783565b91505092915050565b6000602082840312156118305761182f61168b565b5b600082013567ffffffffffffffff81111561184e5761184d611690565b5b61185a848285016117ec565b91505092915050565b6000819050919050565b61187681611863565b811461188157600080fd5b50565b6000813590506118938161186d565b92915050565b6000602082840312156118af576118ae61168b565b5b60006118bd84828501611884565b91505092915050565b6000806000606084860312156118df576118de61168b565b5b60006118ed86828701611884565b93505060206118fe86828701611884565b925050604061190f86828701611884565b9150509250925092565b61192281611863565b82525050565b600060208201905061193d6000830184611919565b92915050565b6000806000806080858703121561195d5761195c61168b565b5b600061196b8782880161176e565b945050602061197c8782880161176e565b935050604061198d8782880161176e565b925050606061199e8782880161176e565b91505092959194509250565b6000602082840312156119c0576119bf61168b565b5b60006119ce8482850161176e565b91505092915050565b60008115159050919050565b6119ec816119d7565b82525050565b6000602082019050611a0760008301846119e3565b92915050565b7f4e487b7100000000000000000000000000000000000000000000000000000000600052603260045260246000fd5b7f4e487b7100000000000000000000000000000000000000000000000000000000600052601160045260246000fd5b6000611a7682611863565b91507fffffffffffffffffffffffffffffffffffffffffffffffffffffffffffffffff821415611aa957611aa8611a3c565b5b600182019050919050565b600082825260208201905092915050565b7f77686974656c697374206f6e6c79000000000000000000000000000000000000600082015250565b6000611afb600e83611ab4565b9150611b0682611ac5565b602082019050919050565b60006020820190508181036000830152611b2a81611aee565b9050919050565b7f546f6b656e73206e6f7420736574000000000000000000000000000000000000600082015250565b6000611b67600e83611ab4565b9150611b7282611b31565b602082019050919050565b60006020820190508181036000830152611b9681611b5a565b9050919050565b6000611ba882611863565b9150611bb383611863565b9250827fffffffffffffffffffffffffffffffffffffffffffffffffffffffffffffffff03821115611be857611be7611a3c565b5b828201905092915050565b7f4d415820414d4f554e5400000000000000000000000000000000000000000000600082015250565b6000611c29600a83611ab4565b9150611c3482611bf3565b602082019050919050565b60006020820190508181036000830152611c5881611c1c565b9050919050565b6000604082019050611c746000830185611657565b611c816020830184611657565b9392505050565b600081519050611c978161186d565b92915050565b600060208284031215611cb357611cb261168b565b5b6000611cc184828501611c88565b91505092915050565b7f436865636b2074686520746f6b656e20616c6c6f77616e636500000000000000600082015250565b6000611d00601983611ab4565b9150611d0b82611cca565b602082019050919050565b60006020820190508181036000830152611d2f81611cf3565b9050919050565b6000606082019050611d4b6000830186611657565b611d586020830185611657565b611d656040830184611919565b949350505050565b611d76816119d7565b8114611d8157600080fd5b50565b600081519050611d9381611d6d565b92915050565b600060208284031215611daf57611dae61168b565b5b6000611dbd84828501611d84565b91505092915050565b6000604082019050611ddb6000830185611657565b611de86020830184611919565b939250505056fea2646970667358221220d101494eebd7cde42caf726e114efd0e75ea91614f2c42770a4883049a06b0e364736f6c634300080a0033",
  "immutableReferences": {},
  "source": "// SPDX-License-Identifier: MIT\npragma solidity 0.8.10;\n\nimport \"./interfaces/IERC20.sol\";\n\ncontract Invest {\n\n    address public owner;\n    address public coin;\n    uint256 public MAXAMOUNT = 0;\n    mapping(address => uint256) public amountPaid;\n    mapping(address => bool) public whitelist;\n    uint256[4] public lootBox;\n    address[4] public tokens;\n    uint256 public totalInvested;\n\n    constructor(address _coin, uint256 _maxAmount, uint256 _rare, uint256 _epic, uint256 _legendary) {\n        owner = msg.sender;\n        coin = _coin;\n        MAXAMOUNT = _maxAmount;\n        lootBox[0] = _rare;\n        lootBox[1] = _epic;\n        lootBox[2] = _legendary;\n        // lootBox[3] = _cosmic;\n    }\n\n    modifier onlyOwner {\n      require(msg.sender == owner);\n      _;\n    }\n\n    modifier tokensSet{\n        require(tokens[0] != address(0) && tokens[1] != address(0) && tokens[2] != address(0) && tokens[3] != address(0), \"Tokens not set\");\n        _;\n    }\n    modifier isWhitelisted{\n        require( whitelist[msg.sender], \"whitelist only\");\n        _;\n    }\n\n\n    function setCoin (address _coin) external onlyOwner{\n        coin = _coin;\n    }\n\n    function setWhitelist (address[] memory _users) external onlyOwner{\n        for (uint256 _user = 0; _user < _users.length; _user++) {\n            whitelist[_users[_user]] = true;            \n        }\n    }\n    \n    function removeWhitelist (address[] memory  _users) external onlyOwner{\n        for (uint256 _user = 0; _user < _users.length; _user++) {\n            whitelist[_users[_user]] = false;            \n        }\n    }\n\n    function setMaxAmount (uint256 _maxAmount) external onlyOwner{\n        MAXAMOUNT = _maxAmount;\n    }\n\n    function setLootBoxValue(uint256 _rare, uint256 _epic, uint256 _legendary) external onlyOwner{\n        lootBox[0] = _rare;\n        lootBox[1] = _epic;\n        lootBox[2] = _legendary;\n        // lootBox[3] = _cosmic;\n    }\n\n    function setTokens(address _rare, address _epic, address _legendary, address _cosmic) external onlyOwner{\n        require(_rare != address(0) && _epic != address(0) && _legendary != address(0) && _cosmic != address(0));\n        tokens[0] = _rare;\n        tokens[1] = _epic;\n        tokens[2] = _legendary;\n        tokens[3] = _cosmic;\n    }\n\n    function invest(uint256 _amount) external isWhitelisted tokensSet{\n        require((amountPaid[msg.sender] + _amount) <= MAXAMOUNT,\"MAX AMOUNT\");\n        uint256 allowance = IERC20(coin).allowance(msg.sender, address(this));\n        require(allowance >= _amount, \"Check the token allowance\");\n        IERC20(coin).transferFrom(msg.sender, address(this), _amount);\n        amountPaid[msg.sender] = amountPaid[msg.sender] + _amount;\n        _mintToken(msg.sender, _amount);\n        totalInvested += _amount;\n    }\n\n    function _mintToken(address _to, uint256 _amount) internal tokensSet{\n        if(_amount < lootBox[0]){\n            IERC20(tokens[0]).mint(_to, _amount);\n        } else if(_amount < lootBox[1]){\n            IERC20(tokens[1]).mint(_to, _amount);\n        } else if(_amount < lootBox[2]){\n            IERC20(tokens[2]).mint(_to, _amount);\n        } else {\n            IERC20(tokens[3]).mint(_to, _amount);\n        }\n    }\n\n    function withdrawCoin() external onlyOwner{\n        uint256 amount = IERC20(coin).balanceOf(address(this));\n        IERC20(coin).transfer(msg.sender, amount);\n    }\n}\n",
  "sourcePath": "/home/badass/Documents/Cosmic/private_sale/contracts/Invest.sol",
  "compiler": {
    "name": "solc",
    "version": "0.8.10+commit.fc410830.Emscripten.clang"
  },
  "schemaVersion": "3.4.4",
  "updatedAt": "2022-02-07T14:07:10.741Z",
  "networkType": "ethereum",
  "devdoc": {
    "kind": "dev",
    "methods": {},
    "version": 1
  },
  "userdoc": {
    "kind": "user",
    "methods": {},
    "version": 1
  }
}