{
  "contractName": "Invest",
  "abi": [
    {
      "inputs": [
        {
          "internalType": "address",
          "name": "_coin",
          "type": "address"
        },
        {
          "internalType": "uint256",
          "name": "_maxAmount",
          "type": "uint256"
        },
        {
          "internalType": "uint256",
          "name": "_rare",
          "type": "uint256"
        },
        {
          "internalType": "uint256",
          "name": "_epic",
          "type": "uint256"
        },
        {
          "internalType": "uint256",
          "name": "_legendary",
          "type": "uint256"
        },
        {
          "internalType": "uint256",
          "name": "_cosmic",
          "type": "uint256"
        }
      ],
      "stateMutability": "nonpayable",
      "type": "constructor"
    },
    {
      "inputs": [],
      "name": "MAXAMOUNT",
      "outputs": [
        {
          "internalType": "uint256",
          "name": "",
          "type": "uint256"
        }
      ],
      "stateMutability": "view",
      "type": "function"
    },
    {
      "inputs": [
        {
          "internalType": "address",
          "name": "",
          "type": "address"
        }
      ],
      "name": "amountPaid",
      "outputs": [
        {
          "internalType": "uint256",
          "name": "",
          "type": "uint256"
        }
      ],
      "stateMutability": "view",
      "type": "function"
    },
    {
      "inputs": [],
      "name": "coin",
      "outputs": [
        {
          "internalType": "address",
          "name": "",
          "type": "address"
        }
      ],
      "stateMutability": "view",
      "type": "function"
    },
    {
      "inputs": [],
      "name": "owner",
      "outputs": [
        {
          "internalType": "address",
          "name": "",
          "type": "address"
        }
      ],
      "stateMutability": "view",
      "type": "function"
    },
    {
      "inputs": [
        {
          "internalType": "address",
          "name": "_coin",
          "type": "address"
        }
      ],
      "name": "setCoin",
      "outputs": [],
      "stateMutability": "nonpayable",
      "type": "function"
    },
    {
      "inputs": [
        {
          "internalType": "address",
          "name": "_user",
          "type": "address"
        }
      ],
      "name": "setWhitelist",
      "outputs": [],
      "stateMutability": "nonpayable",
      "type": "function"
    },
    {
      "inputs": [
        {
          "internalType": "uint256",
          "name": "_maxAmount",
          "type": "uint256"
        }
      ],
      "name": "setMaxAmount",
      "outputs": [],
      "stateMutability": "nonpayable",
      "type": "function"
    },
    {
      "inputs": [
        {
          "internalType": "uint256",
          "name": "_rare",
          "type": "uint256"
        },
        {
          "internalType": "uint256",
          "name": "_epic",
          "type": "uint256"
        },
        {
          "internalType": "uint256",
          "name": "_legendary",
          "type": "uint256"
        },
        {
          "internalType": "uint256",
          "name": "_cosmic",
          "type": "uint256"
        }
      ],
      "name": "setLootBoxValue",
      "outputs": [],
      "stateMutability": "nonpayable",
      "type": "function"
    },
    {
      "inputs": [
        {
          "internalType": "address",
          "name": "_rare",
          "type": "address"
        },
        {
          "internalType": "address",
          "name": "_epic",
          "type": "address"
        },
        {
          "internalType": "address",
          "name": "_legendary",
          "type": "address"
        },
        {
          "internalType": "address",
          "name": "_cosmic",
          "type": "address"
        }
      ],
      "name": "setTokens",
      "outputs": [],
      "stateMutability": "nonpayable",
      "type": "function"
    },
    {
      "inputs": [
        {
          "internalType": "uint256",
          "name": "_amount",
          "type": "uint256"
        }
      ],
      "name": "invest",
      "outputs": [],
      "stateMutability": "nonpayable",
      "type": "function"
    }
  ],
  "bytecode": "0x608060405260006002553480156200001657600080fd5b506040516200172c3803806200172c83398181016040528101906200003c9190620001ed565b336000806101000a81548173ffffffffffffffffffffffffffffffffffffffff021916908373ffffffffffffffffffffffffffffffffffffffff16021790555085600160006101000a81548173ffffffffffffffffffffffffffffffffffffffff021916908373ffffffffffffffffffffffffffffffffffffffff16021790555084600281905550836005600060048110620000dd57620000dc62000289565b5b0181905550826005600160048110620000fb57620000fa62000289565b5b018190555081600560026004811062000119576200011862000289565b5b018190555080600560036004811062000137576200013662000289565b5b0181905550505050505050620002b8565b600080fd5b600073ffffffffffffffffffffffffffffffffffffffff82169050919050565b60006200017a826200014d565b9050919050565b6200018c816200016d565b81146200019857600080fd5b50565b600081519050620001ac8162000181565b92915050565b6000819050919050565b620001c781620001b2565b8114620001d357600080fd5b50565b600081519050620001e781620001bc565b92915050565b60008060008060008060c087890312156200020d576200020c62000148565b5b60006200021d89828a016200019b565b96505060206200023089828a01620001d6565b95505060406200024389828a01620001d6565b94505060606200025689828a01620001d6565b93505060806200026989828a01620001d6565b92505060a06200027c89828a01620001d6565b9150509295509295509295565b7f4e487b7100000000000000000000000000000000000000000000000000000000600052603260045260246000fd5b61146480620002c86000396000f3fe608060405234801561001057600080fd5b506004361061009e5760003560e01c806382e46b751161006657806382e46b7514610131578063854cff2f1461014d578063879cb32e146101695780638da5cb5b146101995780638e66dfd8146101b75761009e565b806311df9995146100a35780632afcf480146100c15780634fe47f70146100dd578063537820bf146100f957806360d423d414610115575b600080fd5b6100ab6101d5565b6040516100b8919061101f565b60405180910390f35b6100db60048036038101906100d69190611075565b6101fb565b005b6100f760048036038101906100f29190611075565b610585565b005b610113600480360381019061010e91906110ce565b6105e7565b005b61012f600480360381019061012a9190611135565b61087e565b005b61014b6004803603810190610146919061119c565b610948565b005b6101676004803603810190610162919061119c565b6109e4565b005b610183600480360381019061017e919061119c565b610a97565b60405161019091906111d8565b60405180910390f35b6101a1610aaf565b6040516101ae919061101f565b60405180910390f35b6101bf610ad3565b6040516101cc91906111d8565b60405180910390f35b600160009054906101000a900473ffffffffffffffffffffffffffffffffffffffff1681565b600073ffffffffffffffffffffffffffffffffffffffff166009600060048110610228576102276111f3565b5b0160009054906101000a900473ffffffffffffffffffffffffffffffffffffffff1673ffffffffffffffffffffffffffffffffffffffff16141580156102d15750600073ffffffffffffffffffffffffffffffffffffffff166009600160048110610296576102956111f3565b5b0160009054906101000a900473ffffffffffffffffffffffffffffffffffffffff1673ffffffffffffffffffffffffffffffffffffffff1614155b80156103405750600073ffffffffffffffffffffffffffffffffffffffff166009600260048110610305576103046111f3565b5b0160009054906101000a900473ffffffffffffffffffffffffffffffffffffffff1673ffffffffffffffffffffffffffffffffffffffff1614155b80156103af5750600073ffffffffffffffffffffffffffffffffffffffff166009600360048110610374576103736111f3565b5b0160009054906101000a900473ffffffffffffffffffffffffffffffffffffffff1673ffffffffffffffffffffffffffffffffffffffff1614155b6103b857600080fd5b60025481600360003373ffffffffffffffffffffffffffffffffffffffff1673ffffffffffffffffffffffffffffffffffffffff168152602001908152602001600020546104069190611251565b1115610447576040517f08c379a000000000000000000000000000000000000000000000000000000000815260040161043e90611304565b60405180910390fd5b600160009054906101000a900473ffffffffffffffffffffffffffffffffffffffff1673ffffffffffffffffffffffffffffffffffffffff166323b872dd3330846040518463ffffffff1660e01b81526004016104a693929190611324565b6020604051808303816000875af11580156104c5573d6000803e3d6000fd5b505050506040513d601f19601f820116820180604052508101906104e99190611393565b5080600360003373ffffffffffffffffffffffffffffffffffffffff1673ffffffffffffffffffffffffffffffffffffffff168152602001908152602001600020546105359190611251565b600360003373ffffffffffffffffffffffffffffffffffffffff1673ffffffffffffffffffffffffffffffffffffffff168152602001908152602001600020819055506105823382610ad9565b50565b60008054906101000a900473ffffffffffffffffffffffffffffffffffffffff1673ffffffffffffffffffffffffffffffffffffffff163373ffffffffffffffffffffffffffffffffffffffff16146105dd57600080fd5b8060028190555050565b60008054906101000a900473ffffffffffffffffffffffffffffffffffffffff1673ffffffffffffffffffffffffffffffffffffffff163373ffffffffffffffffffffffffffffffffffffffff161461063f57600080fd5b600073ffffffffffffffffffffffffffffffffffffffff168473ffffffffffffffffffffffffffffffffffffffff16141580156106a95750600073ffffffffffffffffffffffffffffffffffffffff168373ffffffffffffffffffffffffffffffffffffffff1614155b80156106e25750600073ffffffffffffffffffffffffffffffffffffffff168273ffffffffffffffffffffffffffffffffffffffff1614155b801561071b5750600073ffffffffffffffffffffffffffffffffffffffff168173ffffffffffffffffffffffffffffffffffffffff1614155b61072457600080fd5b83600960006004811061073a576107396111f3565b5b0160006101000a81548173ffffffffffffffffffffffffffffffffffffffff021916908373ffffffffffffffffffffffffffffffffffffffff16021790555082600960016004811061078f5761078e6111f3565b5b0160006101000a81548173ffffffffffffffffffffffffffffffffffffffff021916908373ffffffffffffffffffffffffffffffffffffffff1602179055508160096002600481106107e4576107e36111f3565b5b0160006101000a81548173ffffffffffffffffffffffffffffffffffffffff021916908373ffffffffffffffffffffffffffffffffffffffff160217905550806009600360048110610839576108386111f3565b5b0160006101000a81548173ffffffffffffffffffffffffffffffffffffffff021916908373ffffffffffffffffffffffffffffffffffffffff16021790555050505050565b60008054906101000a900473ffffffffffffffffffffffffffffffffffffffff1673ffffffffffffffffffffffffffffffffffffffff163373ffffffffffffffffffffffffffffffffffffffff16146108d657600080fd5b8360056000600481106108ec576108eb6111f3565b5b0181905550826005600160048110610907576109066111f3565b5b0181905550816005600260048110610922576109216111f3565b5b018190555080600560036004811061093d5761093c6111f3565b5b018190555050505050565b60008054906101000a900473ffffffffffffffffffffffffffffffffffffffff1673ffffffffffffffffffffffffffffffffffffffff163373ffffffffffffffffffffffffffffffffffffffff16146109a057600080fd5b80600160006101000a81548173ffffffffffffffffffffffffffffffffffffffff021916908373ffffffffffffffffffffffffffffffffffffffff16021790555050565b60008054906101000a900473ffffffffffffffffffffffffffffffffffffffff1673ffffffffffffffffffffffffffffffffffffffff163373ffffffffffffffffffffffffffffffffffffffff1614610a3c57600080fd5b6001600460008373ffffffffffffffffffffffffffffffffffffffff1673ffffffffffffffffffffffffffffffffffffffff16815260200190815260200160002060006101000a81548160ff02191690831515021790555050565b60036020528060005260406000206000915090505481565b60008054906101000a900473ffffffffffffffffffffffffffffffffffffffff1681565b60025481565b600073ffffffffffffffffffffffffffffffffffffffff166009600060048110610b0657610b056111f3565b5b0160009054906101000a900473ffffffffffffffffffffffffffffffffffffffff1673ffffffffffffffffffffffffffffffffffffffff1614158015610baf5750600073ffffffffffffffffffffffffffffffffffffffff166009600160048110610b7457610b736111f3565b5b0160009054906101000a900473ffffffffffffffffffffffffffffffffffffffff1673ffffffffffffffffffffffffffffffffffffffff1614155b8015610c1e5750600073ffffffffffffffffffffffffffffffffffffffff166009600260048110610be357610be26111f3565b5b0160009054906101000a900473ffffffffffffffffffffffffffffffffffffffff1673ffffffffffffffffffffffffffffffffffffffff1614155b8015610c8d5750600073ffffffffffffffffffffffffffffffffffffffff166009600360048110610c5257610c516111f3565b5b0160009054906101000a900473ffffffffffffffffffffffffffffffffffffffff1673ffffffffffffffffffffffffffffffffffffffff1614155b610c9657600080fd5b6005600060048110610cab57610caa6111f3565b5b0154811015610d6f576009600060048110610cc957610cc86111f3565b5b0160009054906101000a900473ffffffffffffffffffffffffffffffffffffffff1673ffffffffffffffffffffffffffffffffffffffff166340c10f198360016040518363ffffffff1660e01b8152600401610d26929190611405565b6020604051808303816000875af1158015610d45573d6000803e3d6000fd5b505050506040513d601f19601f82011682018060405250810190610d699190611393565b50610fda565b6005600160048110610d8457610d836111f3565b5b0154811015610e48576009600160048110610da257610da16111f3565b5b0160009054906101000a900473ffffffffffffffffffffffffffffffffffffffff1673ffffffffffffffffffffffffffffffffffffffff166340c10f198360016040518363ffffffff1660e01b8152600401610dff929190611405565b6020604051808303816000875af1158015610e1e573d6000803e3d6000fd5b505050506040513d601f19601f82011682018060405250810190610e429190611393565b50610fd9565b6005600260048110610e5d57610e5c6111f3565b5b0154811015610f21576009600260048110610e7b57610e7a6111f3565b5b0160009054906101000a900473ffffffffffffffffffffffffffffffffffffffff1673ffffffffffffffffffffffffffffffffffffffff166340c10f198360016040518363ffffffff1660e01b8152600401610ed8929190611405565b6020604051808303816000875af1158015610ef7573d6000803e3d6000fd5b505050506040513d601f19601f82011682018060405250810190610f1b9190611393565b50610fd8565b6009600360048110610f3657610f356111f3565b5b0160009054906101000a900473ffffffffffffffffffffffffffffffffffffffff1673ffffffffffffffffffffffffffffffffffffffff166340c10f198360016040518363ffffffff1660e01b8152600401610f93929190611405565b6020604051808303816000875af1158015610fb2573d6000803e3d6000fd5b505050506040513d601f19601f82011682018060405250810190610fd69190611393565b505b5b5b5050565b600073ffffffffffffffffffffffffffffffffffffffff82169050919050565b600061100982610fde565b9050919050565b61101981610ffe565b82525050565b60006020820190506110346000830184611010565b92915050565b600080fd5b6000819050919050565b6110528161103f565b811461105d57600080fd5b50565b60008135905061106f81611049565b92915050565b60006020828403121561108b5761108a61103a565b5b600061109984828501611060565b91505092915050565b6110ab81610ffe565b81146110b657600080fd5b50565b6000813590506110c8816110a2565b92915050565b600080600080608085870312156110e8576110e761103a565b5b60006110f6878288016110b9565b9450506020611107878288016110b9565b9350506040611118878288016110b9565b9250506060611129878288016110b9565b91505092959194509250565b6000806000806080858703121561114f5761114e61103a565b5b600061115d87828801611060565b945050602061116e87828801611060565b935050604061117f87828801611060565b925050606061119087828801611060565b91505092959194509250565b6000602082840312156111b2576111b161103a565b5b60006111c0848285016110b9565b91505092915050565b6111d28161103f565b82525050565b60006020820190506111ed60008301846111c9565b92915050565b7f4e487b7100000000000000000000000000000000000000000000000000000000600052603260045260246000fd5b7f4e487b7100000000000000000000000000000000000000000000000000000000600052601160045260246000fd5b600061125c8261103f565b91506112678361103f565b9250827fffffffffffffffffffffffffffffffffffffffffffffffffffffffffffffffff0382111561129c5761129b611222565b5b828201905092915050565b600082825260208201905092915050565b7f4d415820414d4f554e5400000000000000000000000000000000000000000000600082015250565b60006112ee600a836112a7565b91506112f9826112b8565b602082019050919050565b6000602082019050818103600083015261131d816112e1565b9050919050565b60006060820190506113396000830186611010565b6113466020830185611010565b61135360408301846111c9565b949350505050565b60008115159050919050565b6113708161135b565b811461137b57600080fd5b50565b60008151905061138d81611367565b92915050565b6000602082840312156113a9576113a861103a565b5b60006113b78482850161137e565b91505092915050565b6000819050919050565b6000819050919050565b60006113ef6113ea6113e5846113c0565b6113ca565b61103f565b9050919050565b6113ff816113d4565b82525050565b600060408201905061141a6000830185611010565b61142760208301846113f6565b939250505056fea2646970667358221220f4f955610ebfe49d5b5e6cc858d46b3262714cc974f8d5c89e39a1b839eb024e64736f6c634300080a0033",
  "immutableReferences": {},
  "source": "// SPDX-License-Identifier: MIT\npragma solidity 0.8.10;\n\nimport \"./interfaces/IERC20.sol\";\n\ncontract Invest {\n\n    address public owner;\n    address public coin;\n    uint256 public MAXAMOUNT = 0;\n    mapping(address => uint256) public amountPaid;\n    mapping(address => bool) whitelist;\n    uint256[4] lootBox;\n    address[4] tokens;\n\n    constructor(address _coin, uint256 _maxAmount, uint256 _rare, uint256 _epic, uint256 _legendary, uint256 _cosmic) {\n        owner = msg.sender;\n        coin = _coin;\n        MAXAMOUNT = _maxAmount;\n        lootBox[0] = _rare;\n        lootBox[1] = _epic;\n        lootBox[2] = _legendary;\n        lootBox[3] = _cosmic;\n    }\n\n    modifier onlyOwner {\n      require(msg.sender == owner);\n      _;\n    }\n\n    modifier tokensSet{\n        require(tokens[0] != address(0) && tokens[1] != address(0) && tokens[2] != address(0) && tokens[3] != address(0));\n        _;\n    }\n    modifier isWhitelisted{\n        require( whitelist[msg.sender], \"whitelist only\");\n        _;\n    }\n\n\n    function setCoin (address _coin) external onlyOwner{\n        coin = _coin;\n    }\n\n    function setWhitelist (address _user) external onlyOwner{\n        whitelist[_user] = true;\n    }\n\n    function setMaxAmount (uint256 _maxAmount) external onlyOwner{\n        MAXAMOUNT = _maxAmount;\n    }\n\n    function setLootBoxValue(uint256 _rare, uint256 _epic, uint256 _legendary, uint256 _cosmic) external onlyOwner{\n        lootBox[0] = _rare;\n        lootBox[1] = _epic;\n        lootBox[2] = _legendary;\n        lootBox[3] = _cosmic;\n    }\n\n    function setTokens(address _rare, address _epic, address _legendary, address _cosmic) external onlyOwner{\n        require(_rare != address(0) && _epic != address(0) && _legendary != address(0) && _cosmic != address(0));\n        tokens[0] = _rare;\n        tokens[1] = _epic;\n        tokens[2] = _legendary;\n        tokens[3] = _cosmic;\n    }\n\n    function invest(uint256 _amount) external tokensSet{\n        require((amountPaid[msg.sender] + _amount) <= MAXAMOUNT,\"MAX AMOUNT\");\n        IERC20(coin).transferFrom(msg.sender, address(this), _amount);\n        amountPaid[msg.sender] = amountPaid[msg.sender] + _amount;\n        _mintToken(msg.sender, _amount);       \n    }\n\n    function _mintToken(address _to, uint256 _amount) internal tokensSet{\n        if(_amount < lootBox[0]){\n            IERC20(tokens[0]).mint(_to, 1);\n        } else if(_amount < lootBox[1]){\n            IERC20(tokens[1]).mint(_to, 1);\n        } else if(_amount < lootBox[2]){\n            IERC20(tokens[2]).mint(_to, 1);\n        } else {\n            IERC20(tokens[3]).mint(_to, 1);\n        }\n    }\n}\n",
  "sourcePath": "/home/badass/Documents/Cosmic/private_sale/contracts/Invest.sol",
  "compiler": {
    "name": "solc",
    "version": "0.8.10+commit.fc410830.Emscripten.clang"
  },
  "schemaVersion": "3.4.4",
  "updatedAt": "2022-01-05T14:44:42.318Z",
  "devdoc": {
    "kind": "dev",
    "methods": {},
    "version": 1
  },
  "userdoc": {
    "kind": "user",
    "methods": {},
    "version": 1
  }
}