{
  "contractName": "Invest",
  "abi": [
    {
      "inputs": [
        {
          "internalType": "address",
          "name": "_coin",
          "type": "address"
        },
        {
          "internalType": "uint256",
          "name": "_maxAmount",
          "type": "uint256"
        },
        {
          "internalType": "uint256",
          "name": "_rare",
          "type": "uint256"
        },
        {
          "internalType": "uint256",
          "name": "_epic",
          "type": "uint256"
        },
        {
          "internalType": "uint256",
          "name": "_legendary",
          "type": "uint256"
        },
        {
          "internalType": "uint256",
          "name": "_cosmic",
          "type": "uint256"
        }
      ],
      "stateMutability": "nonpayable",
      "type": "constructor"
    },
    {
      "inputs": [],
      "name": "MAXAMOUNT",
      "outputs": [
        {
          "internalType": "uint256",
          "name": "",
          "type": "uint256"
        }
      ],
      "stateMutability": "view",
      "type": "function"
    },
    {
      "inputs": [
        {
          "internalType": "address",
          "name": "",
          "type": "address"
        }
      ],
      "name": "amountPaid",
      "outputs": [
        {
          "internalType": "uint256",
          "name": "",
          "type": "uint256"
        }
      ],
      "stateMutability": "view",
      "type": "function"
    },
    {
      "inputs": [],
      "name": "coin",
      "outputs": [
        {
          "internalType": "address",
          "name": "",
          "type": "address"
        }
      ],
      "stateMutability": "view",
      "type": "function"
    },
    {
      "inputs": [],
      "name": "owner",
      "outputs": [
        {
          "internalType": "address",
          "name": "",
          "type": "address"
        }
      ],
      "stateMutability": "view",
      "type": "function"
    },
    {
      "inputs": [
        {
          "internalType": "address",
          "name": "_coin",
          "type": "address"
        }
      ],
      "name": "setCoin",
      "outputs": [],
      "stateMutability": "nonpayable",
      "type": "function"
    },
    {
      "inputs": [
        {
          "internalType": "address",
          "name": "_user",
          "type": "address"
        }
      ],
      "name": "setWhitelist",
      "outputs": [],
      "stateMutability": "nonpayable",
      "type": "function"
    },
    {
      "inputs": [
        {
          "internalType": "uint256",
          "name": "_maxAmount",
          "type": "uint256"
        }
      ],
      "name": "setMaxAmount",
      "outputs": [],
      "stateMutability": "nonpayable",
      "type": "function"
    },
    {
      "inputs": [
        {
          "internalType": "uint256",
          "name": "_rare",
          "type": "uint256"
        },
        {
          "internalType": "uint256",
          "name": "_epic",
          "type": "uint256"
        },
        {
          "internalType": "uint256",
          "name": "_legendary",
          "type": "uint256"
        },
        {
          "internalType": "uint256",
          "name": "_cosmic",
          "type": "uint256"
        }
      ],
      "name": "setLootBoxValue",
      "outputs": [],
      "stateMutability": "nonpayable",
      "type": "function"
    },
    {
      "inputs": [
        {
          "internalType": "address",
          "name": "_rare",
          "type": "address"
        },
        {
          "internalType": "address",
          "name": "_epic",
          "type": "address"
        },
        {
          "internalType": "address",
          "name": "_legendary",
          "type": "address"
        },
        {
          "internalType": "address",
          "name": "_cosmic",
          "type": "address"
        }
      ],
      "name": "setTokens",
      "outputs": [],
      "stateMutability": "nonpayable",
      "type": "function"
    },
    {
      "inputs": [
        {
          "internalType": "uint256",
          "name": "_amount",
          "type": "uint256"
        }
      ],
      "name": "invest",
      "outputs": [],
      "stateMutability": "nonpayable",
      "type": "function"
    },
    {
      "inputs": [],
      "name": "withdrawCoin",
      "outputs": [],
      "stateMutability": "nonpayable",
      "type": "function"
    }
  ],
  "bytecode": "0x608060405260006002553480156200001657600080fd5b50604051620019483803806200194883398181016040528101906200003c9190620001ed565b336000806101000a81548173ffffffffffffffffffffffffffffffffffffffff021916908373ffffffffffffffffffffffffffffffffffffffff16021790555085600160006101000a81548173ffffffffffffffffffffffffffffffffffffffff021916908373ffffffffffffffffffffffffffffffffffffffff16021790555084600281905550836005600060048110620000dd57620000dc62000289565b5b0181905550826005600160048110620000fb57620000fa62000289565b5b018190555081600560026004811062000119576200011862000289565b5b018190555080600560036004811062000137576200013662000289565b5b0181905550505050505050620002b8565b600080fd5b600073ffffffffffffffffffffffffffffffffffffffff82169050919050565b60006200017a826200014d565b9050919050565b6200018c816200016d565b81146200019857600080fd5b50565b600081519050620001ac8162000181565b92915050565b6000819050919050565b620001c781620001b2565b8114620001d357600080fd5b50565b600081519050620001e781620001bc565b92915050565b60008060008060008060c087890312156200020d576200020c62000148565b5b60006200021d89828a016200019b565b96505060206200023089828a01620001d6565b95505060406200024389828a01620001d6565b94505060606200025689828a01620001d6565b93505060806200026989828a01620001d6565b92505060a06200027c89828a01620001d6565b9150509295509295509295565b7f4e487b7100000000000000000000000000000000000000000000000000000000600052603260045260246000fd5b61168080620002c86000396000f3fe608060405234801561001057600080fd5b50600436106100a95760003560e01c80636220aea8116100715780636220aea81461013c57806382e46b7514610146578063854cff2f14610162578063879cb32e1461017e5780638da5cb5b146101ae5780638e66dfd8146101cc576100a9565b806311df9995146100ae5780632afcf480146100cc5780634fe47f70146100e8578063537820bf1461010457806360d423d414610120575b600080fd5b6100b66101ea565b6040516100c391906111d0565b60405180910390f35b6100e660048036038101906100e19190611226565b610210565b005b61010260048036038101906100fd9190611226565b61059a565b005b61011e6004803603810190610119919061127f565b6105fc565b005b61013a600480360381019061013591906112e6565b610893565b005b61014461095d565b005b610160600480360381019061015b919061134d565b610af9565b005b61017c6004803603810190610177919061134d565b610b95565b005b6101986004803603810190610193919061134d565b610c48565b6040516101a59190611389565b60405180910390f35b6101b6610c60565b6040516101c391906111d0565b60405180910390f35b6101d4610c84565b6040516101e19190611389565b60405180910390f35b600160009054906101000a900473ffffffffffffffffffffffffffffffffffffffff1681565b600073ffffffffffffffffffffffffffffffffffffffff16600960006004811061023d5761023c6113a4565b5b0160009054906101000a900473ffffffffffffffffffffffffffffffffffffffff1673ffffffffffffffffffffffffffffffffffffffff16141580156102e65750600073ffffffffffffffffffffffffffffffffffffffff1660096001600481106102ab576102aa6113a4565b5b0160009054906101000a900473ffffffffffffffffffffffffffffffffffffffff1673ffffffffffffffffffffffffffffffffffffffff1614155b80156103555750600073ffffffffffffffffffffffffffffffffffffffff16600960026004811061031a576103196113a4565b5b0160009054906101000a900473ffffffffffffffffffffffffffffffffffffffff1673ffffffffffffffffffffffffffffffffffffffff1614155b80156103c45750600073ffffffffffffffffffffffffffffffffffffffff166009600360048110610389576103886113a4565b5b0160009054906101000a900473ffffffffffffffffffffffffffffffffffffffff1673ffffffffffffffffffffffffffffffffffffffff1614155b6103cd57600080fd5b60025481600360003373ffffffffffffffffffffffffffffffffffffffff1673ffffffffffffffffffffffffffffffffffffffff1681526020019081526020016000205461041b9190611402565b111561045c576040517f08c379a0000000000000000000000000000000000000000000000000000000008152600401610453906114b5565b60405180910390fd5b600160009054906101000a900473ffffffffffffffffffffffffffffffffffffffff1673ffffffffffffffffffffffffffffffffffffffff166323b872dd3330846040518463ffffffff1660e01b81526004016104bb939291906114d5565b6020604051808303816000875af11580156104da573d6000803e3d6000fd5b505050506040513d601f19601f820116820180604052508101906104fe9190611544565b5080600360003373ffffffffffffffffffffffffffffffffffffffff1673ffffffffffffffffffffffffffffffffffffffff1681526020019081526020016000205461054a9190611402565b600360003373ffffffffffffffffffffffffffffffffffffffff1673ffffffffffffffffffffffffffffffffffffffff168152602001908152602001600020819055506105973382610c8a565b50565b60008054906101000a900473ffffffffffffffffffffffffffffffffffffffff1673ffffffffffffffffffffffffffffffffffffffff163373ffffffffffffffffffffffffffffffffffffffff16146105f257600080fd5b8060028190555050565b60008054906101000a900473ffffffffffffffffffffffffffffffffffffffff1673ffffffffffffffffffffffffffffffffffffffff163373ffffffffffffffffffffffffffffffffffffffff161461065457600080fd5b600073ffffffffffffffffffffffffffffffffffffffff168473ffffffffffffffffffffffffffffffffffffffff16141580156106be5750600073ffffffffffffffffffffffffffffffffffffffff168373ffffffffffffffffffffffffffffffffffffffff1614155b80156106f75750600073ffffffffffffffffffffffffffffffffffffffff168273ffffffffffffffffffffffffffffffffffffffff1614155b80156107305750600073ffffffffffffffffffffffffffffffffffffffff168173ffffffffffffffffffffffffffffffffffffffff1614155b61073957600080fd5b83600960006004811061074f5761074e6113a4565b5b0160006101000a81548173ffffffffffffffffffffffffffffffffffffffff021916908373ffffffffffffffffffffffffffffffffffffffff1602179055508260096001600481106107a4576107a36113a4565b5b0160006101000a81548173ffffffffffffffffffffffffffffffffffffffff021916908373ffffffffffffffffffffffffffffffffffffffff1602179055508160096002600481106107f9576107f86113a4565b5b0160006101000a81548173ffffffffffffffffffffffffffffffffffffffff021916908373ffffffffffffffffffffffffffffffffffffffff16021790555080600960036004811061084e5761084d6113a4565b5b0160006101000a81548173ffffffffffffffffffffffffffffffffffffffff021916908373ffffffffffffffffffffffffffffffffffffffff16021790555050505050565b60008054906101000a900473ffffffffffffffffffffffffffffffffffffffff1673ffffffffffffffffffffffffffffffffffffffff163373ffffffffffffffffffffffffffffffffffffffff16146108eb57600080fd5b836005600060048110610901576109006113a4565b5b018190555082600560016004811061091c5761091b6113a4565b5b0181905550816005600260048110610937576109366113a4565b5b0181905550806005600360048110610952576109516113a4565b5b018190555050505050565b60008054906101000a900473ffffffffffffffffffffffffffffffffffffffff1673ffffffffffffffffffffffffffffffffffffffff163373ffffffffffffffffffffffffffffffffffffffff16146109b557600080fd5b6000600160009054906101000a900473ffffffffffffffffffffffffffffffffffffffff1673ffffffffffffffffffffffffffffffffffffffff166370a08231306040518263ffffffff1660e01b8152600401610a1291906111d0565b602060405180830381865afa158015610a2f573d6000803e3d6000fd5b505050506040513d601f19601f82011682018060405250810190610a539190611586565b9050600160009054906101000a900473ffffffffffffffffffffffffffffffffffffffff1673ffffffffffffffffffffffffffffffffffffffff1663a9059cbb33836040518363ffffffff1660e01b8152600401610ab29291906115b3565b6020604051808303816000875af1158015610ad1573d6000803e3d6000fd5b505050506040513d601f19601f82011682018060405250810190610af59190611544565b5050565b60008054906101000a900473ffffffffffffffffffffffffffffffffffffffff1673ffffffffffffffffffffffffffffffffffffffff163373ffffffffffffffffffffffffffffffffffffffff1614610b5157600080fd5b80600160006101000a81548173ffffffffffffffffffffffffffffffffffffffff021916908373ffffffffffffffffffffffffffffffffffffffff16021790555050565b60008054906101000a900473ffffffffffffffffffffffffffffffffffffffff1673ffffffffffffffffffffffffffffffffffffffff163373ffffffffffffffffffffffffffffffffffffffff1614610bed57600080fd5b6001600460008373ffffffffffffffffffffffffffffffffffffffff1673ffffffffffffffffffffffffffffffffffffffff16815260200190815260200160002060006101000a81548160ff02191690831515021790555050565b60036020528060005260406000206000915090505481565b60008054906101000a900473ffffffffffffffffffffffffffffffffffffffff1681565b60025481565b600073ffffffffffffffffffffffffffffffffffffffff166009600060048110610cb757610cb66113a4565b5b0160009054906101000a900473ffffffffffffffffffffffffffffffffffffffff1673ffffffffffffffffffffffffffffffffffffffff1614158015610d605750600073ffffffffffffffffffffffffffffffffffffffff166009600160048110610d2557610d246113a4565b5b0160009054906101000a900473ffffffffffffffffffffffffffffffffffffffff1673ffffffffffffffffffffffffffffffffffffffff1614155b8015610dcf5750600073ffffffffffffffffffffffffffffffffffffffff166009600260048110610d9457610d936113a4565b5b0160009054906101000a900473ffffffffffffffffffffffffffffffffffffffff1673ffffffffffffffffffffffffffffffffffffffff1614155b8015610e3e5750600073ffffffffffffffffffffffffffffffffffffffff166009600360048110610e0357610e026113a4565b5b0160009054906101000a900473ffffffffffffffffffffffffffffffffffffffff1673ffffffffffffffffffffffffffffffffffffffff1614155b610e4757600080fd5b6005600060048110610e5c57610e5b6113a4565b5b0154811015610f20576009600060048110610e7a57610e796113a4565b5b0160009054906101000a900473ffffffffffffffffffffffffffffffffffffffff1673ffffffffffffffffffffffffffffffffffffffff166340c10f198360016040518363ffffffff1660e01b8152600401610ed7929190611621565b6020604051808303816000875af1158015610ef6573d6000803e3d6000fd5b505050506040513d601f19601f82011682018060405250810190610f1a9190611544565b5061118b565b6005600160048110610f3557610f346113a4565b5b0154811015610ff9576009600160048110610f5357610f526113a4565b5b0160009054906101000a900473ffffffffffffffffffffffffffffffffffffffff1673ffffffffffffffffffffffffffffffffffffffff166340c10f198360016040518363ffffffff1660e01b8152600401610fb0929190611621565b6020604051808303816000875af1158015610fcf573d6000803e3d6000fd5b505050506040513d601f19601f82011682018060405250810190610ff39190611544565b5061118a565b600560026004811061100e5761100d6113a4565b5b01548110156110d257600960026004811061102c5761102b6113a4565b5b0160009054906101000a900473ffffffffffffffffffffffffffffffffffffffff1673ffffffffffffffffffffffffffffffffffffffff166340c10f198360016040518363ffffffff1660e01b8152600401611089929190611621565b6020604051808303816000875af11580156110a8573d6000803e3d6000fd5b505050506040513d601f19601f820116820180604052508101906110cc9190611544565b50611189565b60096003600481106110e7576110e66113a4565b5b0160009054906101000a900473ffffffffffffffffffffffffffffffffffffffff1673ffffffffffffffffffffffffffffffffffffffff166340c10f198360016040518363ffffffff1660e01b8152600401611144929190611621565b6020604051808303816000875af1158015611163573d6000803e3d6000fd5b505050506040513d601f19601f820116820180604052508101906111879190611544565b505b5b5b5050565b600073ffffffffffffffffffffffffffffffffffffffff82169050919050565b60006111ba8261118f565b9050919050565b6111ca816111af565b82525050565b60006020820190506111e560008301846111c1565b92915050565b600080fd5b6000819050919050565b611203816111f0565b811461120e57600080fd5b50565b600081359050611220816111fa565b92915050565b60006020828403121561123c5761123b6111eb565b5b600061124a84828501611211565b91505092915050565b61125c816111af565b811461126757600080fd5b50565b60008135905061127981611253565b92915050565b60008060008060808587031215611299576112986111eb565b5b60006112a78782880161126a565b94505060206112b88782880161126a565b93505060406112c98782880161126a565b92505060606112da8782880161126a565b91505092959194509250565b60008060008060808587031215611300576112ff6111eb565b5b600061130e87828801611211565b945050602061131f87828801611211565b935050604061133087828801611211565b925050606061134187828801611211565b91505092959194509250565b600060208284031215611363576113626111eb565b5b60006113718482850161126a565b91505092915050565b611383816111f0565b82525050565b600060208201905061139e600083018461137a565b92915050565b7f4e487b7100000000000000000000000000000000000000000000000000000000600052603260045260246000fd5b7f4e487b7100000000000000000000000000000000000000000000000000000000600052601160045260246000fd5b600061140d826111f0565b9150611418836111f0565b9250827fffffffffffffffffffffffffffffffffffffffffffffffffffffffffffffffff0382111561144d5761144c6113d3565b5b828201905092915050565b600082825260208201905092915050565b7f4d415820414d4f554e5400000000000000000000000000000000000000000000600082015250565b600061149f600a83611458565b91506114aa82611469565b602082019050919050565b600060208201905081810360008301526114ce81611492565b9050919050565b60006060820190506114ea60008301866111c1565b6114f760208301856111c1565b611504604083018461137a565b949350505050565b60008115159050919050565b6115218161150c565b811461152c57600080fd5b50565b60008151905061153e81611518565b92915050565b60006020828403121561155a576115596111eb565b5b60006115688482850161152f565b91505092915050565b600081519050611580816111fa565b92915050565b60006020828403121561159c5761159b6111eb565b5b60006115aa84828501611571565b91505092915050565b60006040820190506115c860008301856111c1565b6115d5602083018461137a565b9392505050565b6000819050919050565b6000819050919050565b600061160b611606611601846115dc565b6115e6565b6111f0565b9050919050565b61161b816115f0565b82525050565b600060408201905061163660008301856111c1565b6116436020830184611612565b939250505056fea264697066735822122014c8b70edf7c3109fc2410ad929478cec415fc3e5568d805ee83285dc378c7bf64736f6c634300080a0033",
  "immutableReferences": {},
  "source": "// SPDX-License-Identifier: MIT\npragma solidity 0.8.10;\n\nimport \"./interfaces/IERC20.sol\";\n\ncontract Invest {\n\n    address public owner;\n    address public coin;\n    uint256 public MAXAMOUNT = 0;\n    mapping(address => uint256) public amountPaid;\n    mapping(address => bool) whitelist;\n    uint256[4] lootBox;\n    address[4] tokens;\n\n    constructor(address _coin, uint256 _maxAmount, uint256 _rare, uint256 _epic, uint256 _legendary, uint256 _cosmic) {\n        owner = msg.sender;\n        coin = _coin;\n        MAXAMOUNT = _maxAmount;\n        lootBox[0] = _rare;\n        lootBox[1] = _epic;\n        lootBox[2] = _legendary;\n        lootBox[3] = _cosmic;\n    }\n\n    modifier onlyOwner {\n      require(msg.sender == owner);\n      _;\n    }\n\n    modifier tokensSet{\n        require(tokens[0] != address(0) && tokens[1] != address(0) && tokens[2] != address(0) && tokens[3] != address(0));\n        _;\n    }\n    modifier isWhitelisted{\n        require( whitelist[msg.sender], \"whitelist only\");\n        _;\n    }\n\n\n    function setCoin (address _coin) external onlyOwner{\n        coin = _coin;\n    }\n\n    function setWhitelist (address _user) external onlyOwner{\n        whitelist[_user] = true;\n    }\n\n    function setMaxAmount (uint256 _maxAmount) external onlyOwner{\n        MAXAMOUNT = _maxAmount;\n    }\n\n    function setLootBoxValue(uint256 _rare, uint256 _epic, uint256 _legendary, uint256 _cosmic) external onlyOwner{\n        lootBox[0] = _rare;\n        lootBox[1] = _epic;\n        lootBox[2] = _legendary;\n        lootBox[3] = _cosmic;\n    }\n\n    function setTokens(address _rare, address _epic, address _legendary, address _cosmic) external onlyOwner{\n        require(_rare != address(0) && _epic != address(0) && _legendary != address(0) && _cosmic != address(0));\n        tokens[0] = _rare;\n        tokens[1] = _epic;\n        tokens[2] = _legendary;\n        tokens[3] = _cosmic;\n    }\n\n    function invest(uint256 _amount) external tokensSet{\n        require((amountPaid[msg.sender] + _amount) <= MAXAMOUNT,\"MAX AMOUNT\");\n        IERC20(coin).transferFrom(msg.sender, address(this), _amount);\n        amountPaid[msg.sender] = amountPaid[msg.sender] + _amount;\n        _mintToken(msg.sender, _amount);       \n    }\n\n    function _mintToken(address _to, uint256 _amount) internal tokensSet{\n        if(_amount < lootBox[0]){\n            IERC20(tokens[0]).mint(_to, 1);\n        } else if(_amount < lootBox[1]){\n            IERC20(tokens[1]).mint(_to, 1);\n        } else if(_amount < lootBox[2]){\n            IERC20(tokens[2]).mint(_to, 1);\n        } else {\n            IERC20(tokens[3]).mint(_to, 1);\n        }\n    }\n\n    function withdrawCoin() external onlyOwner{\n        uint256 amount = IERC20(coin).balanceOf(address(this));\n        IERC20(coin).transfer(msg.sender, amount);\n    }\n}\n",
  "sourcePath": "/home/badass/Documents/Cosmic/private_sale/contracts/Invest.sol",
  "compiler": {
    "name": "solc",
    "version": "0.8.10+commit.fc410830.Emscripten.clang"
  },
  "schemaVersion": "3.4.4",
  "updatedAt": "2022-01-05T14:50:58.982Z",
  "devdoc": {
    "kind": "dev",
    "methods": {},
    "version": 1
  },
  "userdoc": {
    "kind": "user",
    "methods": {},
    "version": 1
  }
}