{
  "contractName": "Invest",
  "abi": [
    {
      "inputs": [
        {
          "internalType": "address",
          "name": "_coin",
          "type": "address"
        },
        {
          "internalType": "uint256",
          "name": "_maxAmount",
          "type": "uint256"
        },
        {
          "internalType": "uint256",
          "name": "_rare",
          "type": "uint256"
        },
        {
          "internalType": "uint256",
          "name": "_epic",
          "type": "uint256"
        },
        {
          "internalType": "uint256",
          "name": "_legendary",
          "type": "uint256"
        }
      ],
      "stateMutability": "nonpayable",
      "type": "constructor"
    },
    {
      "inputs": [],
      "name": "MAXAMOUNT",
      "outputs": [
        {
          "internalType": "uint256",
          "name": "",
          "type": "uint256"
        }
      ],
      "stateMutability": "view",
      "type": "function",
      "constant": true
    },
    {
      "inputs": [
        {
          "internalType": "address",
          "name": "",
          "type": "address"
        }
      ],
      "name": "amountPaid",
      "outputs": [
        {
          "internalType": "uint256",
          "name": "",
          "type": "uint256"
        }
      ],
      "stateMutability": "view",
      "type": "function",
      "constant": true
    },
    {
      "inputs": [],
      "name": "coin",
      "outputs": [
        {
          "internalType": "address",
          "name": "",
          "type": "address"
        }
      ],
      "stateMutability": "view",
      "type": "function",
      "constant": true
    },
    {
      "inputs": [
        {
          "internalType": "uint256",
          "name": "",
          "type": "uint256"
        }
      ],
      "name": "lootBox",
      "outputs": [
        {
          "internalType": "uint256",
          "name": "",
          "type": "uint256"
        }
      ],
      "stateMutability": "view",
      "type": "function",
      "constant": true
    },
    {
      "inputs": [],
      "name": "owner",
      "outputs": [
        {
          "internalType": "address",
          "name": "",
          "type": "address"
        }
      ],
      "stateMutability": "view",
      "type": "function",
      "constant": true
    },
    {
      "inputs": [
        {
          "internalType": "uint256",
          "name": "",
          "type": "uint256"
        }
      ],
      "name": "tokens",
      "outputs": [
        {
          "internalType": "address",
          "name": "",
          "type": "address"
        }
      ],
      "stateMutability": "view",
      "type": "function",
      "constant": true
    },
    {
      "inputs": [
        {
          "internalType": "address",
          "name": "",
          "type": "address"
        }
      ],
      "name": "whitelist",
      "outputs": [
        {
          "internalType": "bool",
          "name": "",
          "type": "bool"
        }
      ],
      "stateMutability": "view",
      "type": "function",
      "constant": true
    },
    {
      "inputs": [
        {
          "internalType": "address",
          "name": "_coin",
          "type": "address"
        }
      ],
      "name": "setCoin",
      "outputs": [],
      "stateMutability": "nonpayable",
      "type": "function"
    },
    {
      "inputs": [
        {
          "internalType": "address[]",
          "name": "_users",
          "type": "address[]"
        }
      ],
      "name": "setWhitelist",
      "outputs": [],
      "stateMutability": "nonpayable",
      "type": "function"
    },
    {
      "inputs": [
        {
          "internalType": "address[]",
          "name": "_users",
          "type": "address[]"
        }
      ],
      "name": "removeWhitelist",
      "outputs": [],
      "stateMutability": "nonpayable",
      "type": "function"
    },
    {
      "inputs": [
        {
          "internalType": "uint256",
          "name": "_maxAmount",
          "type": "uint256"
        }
      ],
      "name": "setMaxAmount",
      "outputs": [],
      "stateMutability": "nonpayable",
      "type": "function"
    },
    {
      "inputs": [
        {
          "internalType": "uint256",
          "name": "_rare",
          "type": "uint256"
        },
        {
          "internalType": "uint256",
          "name": "_epic",
          "type": "uint256"
        },
        {
          "internalType": "uint256",
          "name": "_legendary",
          "type": "uint256"
        }
      ],
      "name": "setLootBoxValue",
      "outputs": [],
      "stateMutability": "nonpayable",
      "type": "function"
    },
    {
      "inputs": [
        {
          "internalType": "address",
          "name": "_rare",
          "type": "address"
        },
        {
          "internalType": "address",
          "name": "_epic",
          "type": "address"
        },
        {
          "internalType": "address",
          "name": "_legendary",
          "type": "address"
        },
        {
          "internalType": "address",
          "name": "_cosmic",
          "type": "address"
        }
      ],
      "name": "setTokens",
      "outputs": [],
      "stateMutability": "nonpayable",
      "type": "function"
    },
    {
      "inputs": [
        {
          "internalType": "uint256",
          "name": "_amount",
          "type": "uint256"
        }
      ],
      "name": "invest",
      "outputs": [],
      "stateMutability": "nonpayable",
      "type": "function"
    },
    {
      "inputs": [],
      "name": "withdrawCoin",
      "outputs": [],
      "stateMutability": "nonpayable",
      "type": "function"
    }
  ],
  "bytecode": "0x608060405260006002553480156200001657600080fd5b50604051620020723803806200207283398181016040528101906200003c9190620001ce565b336000806101000a81548173ffffffffffffffffffffffffffffffffffffffff021916908373ffffffffffffffffffffffffffffffffffffffff16021790555084600160006101000a81548173ffffffffffffffffffffffffffffffffffffffff021916908373ffffffffffffffffffffffffffffffffffffffff16021790555083600281905550826005600060048110620000dd57620000dc62000256565b5b0181905550816005600160048110620000fb57620000fa62000256565b5b018190555080600560026004811062000119576200011862000256565b5b0181905550505050505062000285565b600080fd5b600073ffffffffffffffffffffffffffffffffffffffff82169050919050565b60006200015b826200012e565b9050919050565b6200016d816200014e565b81146200017957600080fd5b50565b6000815190506200018d8162000162565b92915050565b6000819050919050565b620001a88162000193565b8114620001b457600080fd5b50565b600081519050620001c8816200019d565b92915050565b600080600080600060a08688031215620001ed57620001ec62000129565b5b6000620001fd888289016200017c565b95505060206200021088828901620001b7565b94505060406200022388828901620001b7565b93505060606200023688828901620001b7565b92505060806200024988828901620001b7565b9150509295509295909350565b7f4e487b7100000000000000000000000000000000000000000000000000000000600052603260045260246000fd5b611ddd80620002956000396000f3fe608060405234801561001057600080fd5b50600436106100f55760003560e01c80636216a058116100975780638da5cb5b116100665780638da5cb5b1461025a5780638e66dfd8146102785780639b19251a14610296578063f4217648146102c6576100f5565b80636216a058146101d45780636220aea81461020457806382e46b751461020e578063879cb32e1461022a576100f5565b80632e4bced6116100d35780632e4bced6146101505780634f64b2be1461016c5780634fe47f701461019c578063537820bf146101b8576100f5565b806311df9995146100fa57806323245216146101185780632afcf48014610134575b600080fd5b6101026102e2565b60405161010f919061161e565b60405180910390f35b610132600480360381019061012d91906117d2565b610308565b005b61014e60048036038101906101499190611851565b6103f5565b005b61016a6004803603810190610165919061187e565b610927565b005b61018660048036038101906101819190611851565b6109d5565b604051610193919061161e565b60405180910390f35b6101b660048036038101906101b19190611851565b610a0b565b005b6101d260048036038101906101cd91906118d1565b610a6d565b005b6101ee60048036038101906101e99190611851565b610d04565b6040516101fb9190611947565b60405180910390f35b61020c610d1f565b005b61022860048036038101906102239190611962565b610ebb565b005b610244600480360381019061023f9190611962565b610f57565b6040516102519190611947565b60405180910390f35b610262610f6f565b60405161026f919061161e565b60405180910390f35b610280610f93565b60405161028d9190611947565b60405180910390f35b6102b060048036038101906102ab9190611962565b610f99565b6040516102bd91906119aa565b60405180910390f35b6102e060048036038101906102db91906117d2565b610fb9565b005b600160009054906101000a900473ffffffffffffffffffffffffffffffffffffffff1681565b60008054906101000a900473ffffffffffffffffffffffffffffffffffffffff1673ffffffffffffffffffffffffffffffffffffffff163373ffffffffffffffffffffffffffffffffffffffff161461036057600080fd5b60005b81518110156103f157600060046000848481518110610385576103846119c5565b5b602002602001015173ffffffffffffffffffffffffffffffffffffffff1673ffffffffffffffffffffffffffffffffffffffff16815260200190815260200160002060006101000a81548160ff02191690831515021790555080806103e990611a23565b915050610363565b5050565b600460003373ffffffffffffffffffffffffffffffffffffffff1673ffffffffffffffffffffffffffffffffffffffff16815260200190815260200160002060009054906101000a900460ff16610481576040517f08c379a000000000000000000000000000000000000000000000000000000000815260040161047890611ac9565b60405180910390fd5b600073ffffffffffffffffffffffffffffffffffffffff1660096000600481106104ae576104ad6119c5565b5b0160009054906101000a900473ffffffffffffffffffffffffffffffffffffffff1673ffffffffffffffffffffffffffffffffffffffff16141580156105575750600073ffffffffffffffffffffffffffffffffffffffff16600960016004811061051c5761051b6119c5565b5b0160009054906101000a900473ffffffffffffffffffffffffffffffffffffffff1673ffffffffffffffffffffffffffffffffffffffff1614155b80156105c65750600073ffffffffffffffffffffffffffffffffffffffff16600960026004811061058b5761058a6119c5565b5b0160009054906101000a900473ffffffffffffffffffffffffffffffffffffffff1673ffffffffffffffffffffffffffffffffffffffff1614155b80156106355750600073ffffffffffffffffffffffffffffffffffffffff1660096003600481106105fa576105f96119c5565b5b0160009054906101000a900473ffffffffffffffffffffffffffffffffffffffff1673ffffffffffffffffffffffffffffffffffffffff1614155b610674576040517f08c379a000000000000000000000000000000000000000000000000000000000815260040161066b90611b35565b60405180910390fd5b60025481600360003373ffffffffffffffffffffffffffffffffffffffff1673ffffffffffffffffffffffffffffffffffffffff168152602001908152602001600020546106c29190611b55565b1115610703576040517f08c379a00000000000000000000000000000000000000000000000000000000081526004016106fa90611bf7565b60405180910390fd5b6000600160009054906101000a900473ffffffffffffffffffffffffffffffffffffffff1673ffffffffffffffffffffffffffffffffffffffff1663dd62ed3e33306040518363ffffffff1660e01b8152600401610762929190611c17565b602060405180830381865afa15801561077f573d6000803e3d6000fd5b505050506040513d601f19601f820116820180604052508101906107a39190611c55565b9050818110156107e8576040517f08c379a00000000000000000000000000000000000000000000000000000000081526004016107df90611cce565b60405180910390fd5b600160009054906101000a900473ffffffffffffffffffffffffffffffffffffffff1673ffffffffffffffffffffffffffffffffffffffff166323b872dd3330856040518463ffffffff1660e01b815260040161084793929190611cee565b6020604051808303816000875af1158015610866573d6000803e3d6000fd5b505050506040513d601f19601f8201168201806040525081019061088a9190611d51565b5081600360003373ffffffffffffffffffffffffffffffffffffffff1673ffffffffffffffffffffffffffffffffffffffff168152602001908152602001600020546108d69190611b55565b600360003373ffffffffffffffffffffffffffffffffffffffff1673ffffffffffffffffffffffffffffffffffffffff1681526020019081526020016000208190555061092333836110a6565b5050565b60008054906101000a900473ffffffffffffffffffffffffffffffffffffffff1673ffffffffffffffffffffffffffffffffffffffff163373ffffffffffffffffffffffffffffffffffffffff161461097f57600080fd5b826005600060048110610995576109946119c5565b5b01819055508160056001600481106109b0576109af6119c5565b5b01819055508060056002600481106109cb576109ca6119c5565b5b0181905550505050565b600981600481106109e557600080fd5b016000915054906101000a900473ffffffffffffffffffffffffffffffffffffffff1681565b60008054906101000a900473ffffffffffffffffffffffffffffffffffffffff1673ffffffffffffffffffffffffffffffffffffffff163373ffffffffffffffffffffffffffffffffffffffff1614610a6357600080fd5b8060028190555050565b60008054906101000a900473ffffffffffffffffffffffffffffffffffffffff1673ffffffffffffffffffffffffffffffffffffffff163373ffffffffffffffffffffffffffffffffffffffff1614610ac557600080fd5b600073ffffffffffffffffffffffffffffffffffffffff168473ffffffffffffffffffffffffffffffffffffffff1614158015610b2f5750600073ffffffffffffffffffffffffffffffffffffffff168373ffffffffffffffffffffffffffffffffffffffff1614155b8015610b685750600073ffffffffffffffffffffffffffffffffffffffff168273ffffffffffffffffffffffffffffffffffffffff1614155b8015610ba15750600073ffffffffffffffffffffffffffffffffffffffff168173ffffffffffffffffffffffffffffffffffffffff1614155b610baa57600080fd5b836009600060048110610bc057610bbf6119c5565b5b0160006101000a81548173ffffffffffffffffffffffffffffffffffffffff021916908373ffffffffffffffffffffffffffffffffffffffff160217905550826009600160048110610c1557610c146119c5565b5b0160006101000a81548173ffffffffffffffffffffffffffffffffffffffff021916908373ffffffffffffffffffffffffffffffffffffffff160217905550816009600260048110610c6a57610c696119c5565b5b0160006101000a81548173ffffffffffffffffffffffffffffffffffffffff021916908373ffffffffffffffffffffffffffffffffffffffff160217905550806009600360048110610cbf57610cbe6119c5565b5b0160006101000a81548173ffffffffffffffffffffffffffffffffffffffff021916908373ffffffffffffffffffffffffffffffffffffffff16021790555050505050565b60058160048110610d1457600080fd5b016000915090505481565b60008054906101000a900473ffffffffffffffffffffffffffffffffffffffff1673ffffffffffffffffffffffffffffffffffffffff163373ffffffffffffffffffffffffffffffffffffffff1614610d7757600080fd5b6000600160009054906101000a900473ffffffffffffffffffffffffffffffffffffffff1673ffffffffffffffffffffffffffffffffffffffff166370a08231306040518263ffffffff1660e01b8152600401610dd4919061161e565b602060405180830381865afa158015610df1573d6000803e3d6000fd5b505050506040513d601f19601f82011682018060405250810190610e159190611c55565b9050600160009054906101000a900473ffffffffffffffffffffffffffffffffffffffff1673ffffffffffffffffffffffffffffffffffffffff1663a9059cbb33836040518363ffffffff1660e01b8152600401610e74929190611d7e565b6020604051808303816000875af1158015610e93573d6000803e3d6000fd5b505050506040513d601f19601f82011682018060405250810190610eb79190611d51565b5050565b60008054906101000a900473ffffffffffffffffffffffffffffffffffffffff1673ffffffffffffffffffffffffffffffffffffffff163373ffffffffffffffffffffffffffffffffffffffff1614610f1357600080fd5b80600160006101000a81548173ffffffffffffffffffffffffffffffffffffffff021916908373ffffffffffffffffffffffffffffffffffffffff16021790555050565b60036020528060005260406000206000915090505481565b60008054906101000a900473ffffffffffffffffffffffffffffffffffffffff1681565b60025481565b60046020528060005260406000206000915054906101000a900460ff1681565b60008054906101000a900473ffffffffffffffffffffffffffffffffffffffff1673ffffffffffffffffffffffffffffffffffffffff163373ffffffffffffffffffffffffffffffffffffffff161461101157600080fd5b60005b81518110156110a257600160046000848481518110611036576110356119c5565b5b602002602001015173ffffffffffffffffffffffffffffffffffffffff1673ffffffffffffffffffffffffffffffffffffffff16815260200190815260200160002060006101000a81548160ff021916908315150217905550808061109a90611a23565b915050611014565b5050565b600073ffffffffffffffffffffffffffffffffffffffff1660096000600481106110d3576110d26119c5565b5b0160009054906101000a900473ffffffffffffffffffffffffffffffffffffffff1673ffffffffffffffffffffffffffffffffffffffff161415801561117c5750600073ffffffffffffffffffffffffffffffffffffffff166009600160048110611141576111406119c5565b5b0160009054906101000a900473ffffffffffffffffffffffffffffffffffffffff1673ffffffffffffffffffffffffffffffffffffffff1614155b80156111eb5750600073ffffffffffffffffffffffffffffffffffffffff1660096002600481106111b0576111af6119c5565b5b0160009054906101000a900473ffffffffffffffffffffffffffffffffffffffff1673ffffffffffffffffffffffffffffffffffffffff1614155b801561125a5750600073ffffffffffffffffffffffffffffffffffffffff16600960036004811061121f5761121e6119c5565b5b0160009054906101000a900473ffffffffffffffffffffffffffffffffffffffff1673ffffffffffffffffffffffffffffffffffffffff1614155b611299576040517f08c379a000000000000000000000000000000000000000000000000000000000815260040161129090611b35565b60405180910390fd5b60056000600481106112ae576112ad6119c5565b5b01548110156113715760096000600481106112cc576112cb6119c5565b5b0160009054906101000a900473ffffffffffffffffffffffffffffffffffffffff1673ffffffffffffffffffffffffffffffffffffffff166340c10f1983836040518363ffffffff1660e01b8152600401611328929190611d7e565b6020604051808303816000875af1158015611347573d6000803e3d6000fd5b505050506040513d601f19601f8201168201806040525081019061136b9190611d51565b506115d9565b6005600160048110611386576113856119c5565b5b01548110156114495760096001600481106113a4576113a36119c5565b5b0160009054906101000a900473ffffffffffffffffffffffffffffffffffffffff1673ffffffffffffffffffffffffffffffffffffffff166340c10f1983836040518363ffffffff1660e01b8152600401611400929190611d7e565b6020604051808303816000875af115801561141f573d6000803e3d6000fd5b505050506040513d601f19601f820116820180604052508101906114439190611d51565b506115d8565b600560026004811061145e5761145d6119c5565b5b015481101561152157600960026004811061147c5761147b6119c5565b5b0160009054906101000a900473ffffffffffffffffffffffffffffffffffffffff1673ffffffffffffffffffffffffffffffffffffffff166340c10f1983836040518363ffffffff1660e01b81526004016114d8929190611d7e565b6020604051808303816000875af11580156114f7573d6000803e3d6000fd5b505050506040513d601f19601f8201168201806040525081019061151b9190611d51565b506115d7565b6009600360048110611536576115356119c5565b5b0160009054906101000a900473ffffffffffffffffffffffffffffffffffffffff1673ffffffffffffffffffffffffffffffffffffffff166340c10f1983836040518363ffffffff1660e01b8152600401611592929190611d7e565b6020604051808303816000875af11580156115b1573d6000803e3d6000fd5b505050506040513d601f19601f820116820180604052508101906115d59190611d51565b505b5b5b5050565b600073ffffffffffffffffffffffffffffffffffffffff82169050919050565b6000611608826115dd565b9050919050565b611618816115fd565b82525050565b6000602082019050611633600083018461160f565b92915050565b6000604051905090565b600080fd5b600080fd5b600080fd5b6000601f19601f8301169050919050565b7f4e487b7100000000000000000000000000000000000000000000000000000000600052604160045260246000fd5b61169b82611652565b810181811067ffffffffffffffff821117156116ba576116b9611663565b5b80604052505050565b60006116cd611639565b90506116d98282611692565b919050565b600067ffffffffffffffff8211156116f9576116f8611663565b5b602082029050602081019050919050565b600080fd5b611718816115fd565b811461172357600080fd5b50565b6000813590506117358161170f565b92915050565b600061174e611749846116de565b6116c3565b905080838252602082019050602084028301858111156117715761177061170a565b5b835b8181101561179a57806117868882611726565b845260208401935050602081019050611773565b5050509392505050565b600082601f8301126117b9576117b861164d565b5b81356117c984826020860161173b565b91505092915050565b6000602082840312156117e8576117e7611643565b5b600082013567ffffffffffffffff81111561180657611805611648565b5b611812848285016117a4565b91505092915050565b6000819050919050565b61182e8161181b565b811461183957600080fd5b50565b60008135905061184b81611825565b92915050565b60006020828403121561186757611866611643565b5b60006118758482850161183c565b91505092915050565b60008060006060848603121561189757611896611643565b5b60006118a58682870161183c565b93505060206118b68682870161183c565b92505060406118c78682870161183c565b9150509250925092565b600080600080608085870312156118eb576118ea611643565b5b60006118f987828801611726565b945050602061190a87828801611726565b935050604061191b87828801611726565b925050606061192c87828801611726565b91505092959194509250565b6119418161181b565b82525050565b600060208201905061195c6000830184611938565b92915050565b60006020828403121561197857611977611643565b5b600061198684828501611726565b91505092915050565b60008115159050919050565b6119a48161198f565b82525050565b60006020820190506119bf600083018461199b565b92915050565b7f4e487b7100000000000000000000000000000000000000000000000000000000600052603260045260246000fd5b7f4e487b7100000000000000000000000000000000000000000000000000000000600052601160045260246000fd5b6000611a2e8261181b565b91507fffffffffffffffffffffffffffffffffffffffffffffffffffffffffffffffff821415611a6157611a606119f4565b5b600182019050919050565b600082825260208201905092915050565b7f77686974656c697374206f6e6c79000000000000000000000000000000000000600082015250565b6000611ab3600e83611a6c565b9150611abe82611a7d565b602082019050919050565b60006020820190508181036000830152611ae281611aa6565b9050919050565b7f546f6b656e73206e6f7420736574000000000000000000000000000000000000600082015250565b6000611b1f600e83611a6c565b9150611b2a82611ae9565b602082019050919050565b60006020820190508181036000830152611b4e81611b12565b9050919050565b6000611b608261181b565b9150611b6b8361181b565b9250827fffffffffffffffffffffffffffffffffffffffffffffffffffffffffffffffff03821115611ba057611b9f6119f4565b5b828201905092915050565b7f4d415820414d4f554e5400000000000000000000000000000000000000000000600082015250565b6000611be1600a83611a6c565b9150611bec82611bab565b602082019050919050565b60006020820190508181036000830152611c1081611bd4565b9050919050565b6000604082019050611c2c600083018561160f565b611c39602083018461160f565b9392505050565b600081519050611c4f81611825565b92915050565b600060208284031215611c6b57611c6a611643565b5b6000611c7984828501611c40565b91505092915050565b7f436865636b2074686520746f6b656e20616c6c6f77616e636500000000000000600082015250565b6000611cb8601983611a6c565b9150611cc382611c82565b602082019050919050565b60006020820190508181036000830152611ce781611cab565b9050919050565b6000606082019050611d03600083018661160f565b611d10602083018561160f565b611d1d6040830184611938565b949350505050565b611d2e8161198f565b8114611d3957600080fd5b50565b600081519050611d4b81611d25565b92915050565b600060208284031215611d6757611d66611643565b5b6000611d7584828501611d3c565b91505092915050565b6000604082019050611d93600083018561160f565b611da06020830184611938565b939250505056fea26469706673582212208eccba1a0a605f879832af55c1a0307145d0da1342a1c1e4c8c766d15e3e909464736f6c634300080a0033",
  "immutableReferences": {},
  "source": "// SPDX-License-Identifier: MIT\npragma solidity 0.8.10;\n\nimport \"./interfaces/IERC20.sol\";\n\ncontract Invest {\n\n    address public owner;\n    address public coin;\n    uint256 public MAXAMOUNT = 0;\n    mapping(address => uint256) public amountPaid;\n    mapping(address => bool) public whitelist;\n    uint256[4] public lootBox;\n    address[4] public tokens;\n\n    constructor(address _coin, uint256 _maxAmount, uint256 _rare, uint256 _epic, uint256 _legendary) {\n        owner = msg.sender;\n        coin = _coin;\n        MAXAMOUNT = _maxAmount;\n        lootBox[0] = _rare;\n        lootBox[1] = _epic;\n        lootBox[2] = _legendary;\n        // lootBox[3] = _cosmic;\n    }\n\n    modifier onlyOwner {\n      require(msg.sender == owner);\n      _;\n    }\n\n    modifier tokensSet{\n        require(tokens[0] != address(0) && tokens[1] != address(0) && tokens[2] != address(0) && tokens[3] != address(0), \"Tokens not set\");\n        _;\n    }\n    modifier isWhitelisted{\n        require( whitelist[msg.sender], \"whitelist only\");\n        _;\n    }\n\n\n    function setCoin (address _coin) external onlyOwner{\n        coin = _coin;\n    }\n\n    function setWhitelist (address[] memory _users) external onlyOwner{\n        for (uint256 _user = 0; _user < _users.length; _user++) {\n            whitelist[_users[_user]] = true;            \n        }\n    }\n    \n    function removeWhitelist (address[] memory  _users) external onlyOwner{\n        for (uint256 _user = 0; _user < _users.length; _user++) {\n            whitelist[_users[_user]] = false;            \n        }\n    }\n\n    function setMaxAmount (uint256 _maxAmount) external onlyOwner{\n        MAXAMOUNT = _maxAmount;\n    }\n\n    function setLootBoxValue(uint256 _rare, uint256 _epic, uint256 _legendary) external onlyOwner{\n        lootBox[0] = _rare;\n        lootBox[1] = _epic;\n        lootBox[2] = _legendary;\n        // lootBox[3] = _cosmic;\n    }\n\n    function setTokens(address _rare, address _epic, address _legendary, address _cosmic) external onlyOwner{\n        require(_rare != address(0) && _epic != address(0) && _legendary != address(0) && _cosmic != address(0));\n        tokens[0] = _rare;\n        tokens[1] = _epic;\n        tokens[2] = _legendary;\n        tokens[3] = _cosmic;\n    }\n\n    function invest(uint256 _amount) external isWhitelisted tokensSet{\n        require((amountPaid[msg.sender] + _amount) <= MAXAMOUNT,\"MAX AMOUNT\");\n        uint256 allowance = IERC20(coin).allowance(msg.sender, address(this));\n        require(allowance >= _amount, \"Check the token allowance\");\n        IERC20(coin).transferFrom(msg.sender, address(this), _amount);\n        amountPaid[msg.sender] = amountPaid[msg.sender] + _amount;\n        _mintToken(msg.sender, _amount);       \n    }\n\n    function _mintToken(address _to, uint256 _amount) internal tokensSet{\n        if(_amount < lootBox[0]){\n            IERC20(tokens[0]).mint(_to, _amount);\n        } else if(_amount < lootBox[1]){\n            IERC20(tokens[1]).mint(_to, _amount);\n        } else if(_amount < lootBox[2]){\n            IERC20(tokens[2]).mint(_to, _amount);\n        } else {\n            IERC20(tokens[3]).mint(_to, _amount);\n        }\n    }\n\n    function withdrawCoin() external onlyOwner{\n        uint256 amount = IERC20(coin).balanceOf(address(this));\n        IERC20(coin).transfer(msg.sender, amount);\n    }\n}\n",
  "sourcePath": "/home/badass/Documents/Cosmic/private_sale/contracts/Invest.sol",
  "compiler": {
    "name": "solc",
    "version": "0.8.10+commit.fc410830.Emscripten.clang"
  },
  "schemaVersion": "3.4.4",
  "updatedAt": "2022-01-18T08:14:30.493Z",
  "networkType": "ethereum",
  "devdoc": {
    "kind": "dev",
    "methods": {},
    "version": 1
  },
  "userdoc": {
    "kind": "user",
    "methods": {},
    "version": 1
  }
}