{
  "contractName": "Invest",
  "abi": [
    {
      "inputs": [
        {
          "internalType": "address",
          "name": "_coin",
          "type": "address"
        },
        {
          "internalType": "uint256",
          "name": "_maxAmount",
          "type": "uint256"
        },
        {
          "internalType": "uint256",
          "name": "_rare",
          "type": "uint256"
        },
        {
          "internalType": "uint256",
          "name": "_epic",
          "type": "uint256"
        },
        {
          "internalType": "uint256",
          "name": "_legendary",
          "type": "uint256"
        }
      ],
      "stateMutability": "nonpayable",
      "type": "constructor"
    },
    {
      "inputs": [],
      "name": "MAXAMOUNT",
      "outputs": [
        {
          "internalType": "uint256",
          "name": "",
          "type": "uint256"
        }
      ],
      "stateMutability": "view",
      "type": "function",
      "constant": true
    },
    {
      "inputs": [
        {
          "internalType": "address",
          "name": "",
          "type": "address"
        }
      ],
      "name": "amountPaid",
      "outputs": [
        {
          "internalType": "uint256",
          "name": "",
          "type": "uint256"
        }
      ],
      "stateMutability": "view",
      "type": "function",
      "constant": true
    },
    {
      "inputs": [],
      "name": "coin",
      "outputs": [
        {
          "internalType": "address",
          "name": "",
          "type": "address"
        }
      ],
      "stateMutability": "view",
      "type": "function",
      "constant": true
    },
    {
      "inputs": [],
      "name": "owner",
      "outputs": [
        {
          "internalType": "address",
          "name": "",
          "type": "address"
        }
      ],
      "stateMutability": "view",
      "type": "function",
      "constant": true
    },
    {
      "inputs": [
        {
          "internalType": "address",
          "name": "_coin",
          "type": "address"
        }
      ],
      "name": "setCoin",
      "outputs": [],
      "stateMutability": "nonpayable",
      "type": "function"
    },
    {
      "inputs": [
        {
          "internalType": "address[]",
          "name": "_users",
          "type": "address[]"
        }
      ],
      "name": "setWhitelist",
      "outputs": [],
      "stateMutability": "nonpayable",
      "type": "function"
    },
    {
      "inputs": [
        {
          "internalType": "address[]",
          "name": "_users",
          "type": "address[]"
        }
      ],
      "name": "removeWhitelist",
      "outputs": [],
      "stateMutability": "nonpayable",
      "type": "function"
    },
    {
      "inputs": [
        {
          "internalType": "uint256",
          "name": "_maxAmount",
          "type": "uint256"
        }
      ],
      "name": "setMaxAmount",
      "outputs": [],
      "stateMutability": "nonpayable",
      "type": "function"
    },
    {
      "inputs": [
        {
          "internalType": "uint256",
          "name": "_rare",
          "type": "uint256"
        },
        {
          "internalType": "uint256",
          "name": "_epic",
          "type": "uint256"
        },
        {
          "internalType": "uint256",
          "name": "_legendary",
          "type": "uint256"
        },
        {
          "internalType": "uint256",
          "name": "_cosmic",
          "type": "uint256"
        }
      ],
      "name": "setLootBoxValue",
      "outputs": [],
      "stateMutability": "nonpayable",
      "type": "function"
    },
    {
      "inputs": [
        {
          "internalType": "address",
          "name": "_rare",
          "type": "address"
        },
        {
          "internalType": "address",
          "name": "_epic",
          "type": "address"
        },
        {
          "internalType": "address",
          "name": "_legendary",
          "type": "address"
        },
        {
          "internalType": "address",
          "name": "_cosmic",
          "type": "address"
        }
      ],
      "name": "setTokens",
      "outputs": [],
      "stateMutability": "nonpayable",
      "type": "function"
    },
    {
      "inputs": [
        {
          "internalType": "uint256",
          "name": "_amount",
          "type": "uint256"
        }
      ],
      "name": "invest",
      "outputs": [],
      "stateMutability": "nonpayable",
      "type": "function"
    },
    {
      "inputs": [],
      "name": "withdrawCoin",
      "outputs": [],
      "stateMutability": "nonpayable",
      "type": "function"
    }
  ],
  "bytecode": "0x608060405260006002553480156200001657600080fd5b5060405162001cc838038062001cc883398181016040528101906200003c9190620001ce565b336000806101000a81548173ffffffffffffffffffffffffffffffffffffffff021916908373ffffffffffffffffffffffffffffffffffffffff16021790555084600160006101000a81548173ffffffffffffffffffffffffffffffffffffffff021916908373ffffffffffffffffffffffffffffffffffffffff16021790555083600281905550826005600060048110620000dd57620000dc62000256565b5b0181905550816005600160048110620000fb57620000fa62000256565b5b018190555080600560026004811062000119576200011862000256565b5b0181905550505050505062000285565b600080fd5b600073ffffffffffffffffffffffffffffffffffffffff82169050919050565b60006200015b826200012e565b9050919050565b6200016d816200014e565b81146200017957600080fd5b50565b6000815190506200018d8162000162565b92915050565b6000819050919050565b620001a88162000193565b8114620001b457600080fd5b50565b600081519050620001c8816200019d565b92915050565b600080600080600060a08688031215620001ed57620001ec62000129565b5b6000620001fd888289016200017c565b95505060206200021088828901620001b7565b94505060406200022388828901620001b7565b93505060606200023688828901620001b7565b92505060806200024988828901620001b7565b9150509295509295909350565b7f4e487b7100000000000000000000000000000000000000000000000000000000600052603260045260246000fd5b611a3380620002956000396000f3fe608060405234801561001057600080fd5b50600436106100b45760003560e01c80636220aea8116100715780636220aea81461016357806382e46b751461016d578063879cb32e146101895780638da5cb5b146101b95780638e66dfd8146101d7578063f4217648146101f5576100b4565b806311df9995146100b957806323245216146100d75780632afcf480146100f35780634fe47f701461010f578063537820bf1461012b57806360d423d414610147575b600080fd5b6100c1610211565b6040516100ce919061138b565b60405180910390f35b6100f160048036038101906100ec919061153f565b610237565b005b61010d600480360381019061010891906115be565b610324565b005b610129600480360381019061012491906115be565b61073a565b005b610145600480360381019061014091906115eb565b61079c565b005b610161600480360381019061015c9190611652565b610a33565b005b61016b610ae2565b005b610187600480360381019061018291906116b9565b610c7e565b005b6101a3600480360381019061019e91906116b9565b610d1a565b6040516101b091906116f5565b60405180910390f35b6101c1610d32565b6040516101ce919061138b565b60405180910390f35b6101df610d56565b6040516101ec91906116f5565b60405180910390f35b61020f600480360381019061020a919061153f565b610d5c565b005b600160009054906101000a900473ffffffffffffffffffffffffffffffffffffffff1681565b60008054906101000a900473ffffffffffffffffffffffffffffffffffffffff1673ffffffffffffffffffffffffffffffffffffffff163373ffffffffffffffffffffffffffffffffffffffff161461028f57600080fd5b60005b8151811015610320576000600460008484815181106102b4576102b3611710565b5b602002602001015173ffffffffffffffffffffffffffffffffffffffff1673ffffffffffffffffffffffffffffffffffffffff16815260200190815260200160002060006101000a81548160ff02191690831515021790555080806103189061176e565b915050610292565b5050565b600460003373ffffffffffffffffffffffffffffffffffffffff1673ffffffffffffffffffffffffffffffffffffffff16815260200190815260200160002060009054906101000a900460ff166103b0576040517f08c379a00000000000000000000000000000000000000000000000000000000081526004016103a790611814565b60405180910390fd5b600073ffffffffffffffffffffffffffffffffffffffff1660096000600481106103dd576103dc611710565b5b0160009054906101000a900473ffffffffffffffffffffffffffffffffffffffff1673ffffffffffffffffffffffffffffffffffffffff16141580156104865750600073ffffffffffffffffffffffffffffffffffffffff16600960016004811061044b5761044a611710565b5b0160009054906101000a900473ffffffffffffffffffffffffffffffffffffffff1673ffffffffffffffffffffffffffffffffffffffff1614155b80156104f55750600073ffffffffffffffffffffffffffffffffffffffff1660096002600481106104ba576104b9611710565b5b0160009054906101000a900473ffffffffffffffffffffffffffffffffffffffff1673ffffffffffffffffffffffffffffffffffffffff1614155b80156105645750600073ffffffffffffffffffffffffffffffffffffffff16600960036004811061052957610528611710565b5b0160009054906101000a900473ffffffffffffffffffffffffffffffffffffffff1673ffffffffffffffffffffffffffffffffffffffff1614155b61056d57600080fd5b60025481600360003373ffffffffffffffffffffffffffffffffffffffff1673ffffffffffffffffffffffffffffffffffffffff168152602001908152602001600020546105bb9190611834565b11156105fc576040517f08c379a00000000000000000000000000000000000000000000000000000000081526004016105f3906118d6565b60405180910390fd5b600160009054906101000a900473ffffffffffffffffffffffffffffffffffffffff1673ffffffffffffffffffffffffffffffffffffffff166323b872dd3330846040518463ffffffff1660e01b815260040161065b939291906118f6565b6020604051808303816000875af115801561067a573d6000803e3d6000fd5b505050506040513d601f19601f8201168201806040525081019061069e9190611965565b5080600360003373ffffffffffffffffffffffffffffffffffffffff1673ffffffffffffffffffffffffffffffffffffffff168152602001908152602001600020546106ea9190611834565b600360003373ffffffffffffffffffffffffffffffffffffffff1673ffffffffffffffffffffffffffffffffffffffff168152602001908152602001600020819055506107373382610e49565b50565b60008054906101000a900473ffffffffffffffffffffffffffffffffffffffff1673ffffffffffffffffffffffffffffffffffffffff163373ffffffffffffffffffffffffffffffffffffffff161461079257600080fd5b8060028190555050565b60008054906101000a900473ffffffffffffffffffffffffffffffffffffffff1673ffffffffffffffffffffffffffffffffffffffff163373ffffffffffffffffffffffffffffffffffffffff16146107f457600080fd5b600073ffffffffffffffffffffffffffffffffffffffff168473ffffffffffffffffffffffffffffffffffffffff161415801561085e5750600073ffffffffffffffffffffffffffffffffffffffff168373ffffffffffffffffffffffffffffffffffffffff1614155b80156108975750600073ffffffffffffffffffffffffffffffffffffffff168273ffffffffffffffffffffffffffffffffffffffff1614155b80156108d05750600073ffffffffffffffffffffffffffffffffffffffff168173ffffffffffffffffffffffffffffffffffffffff1614155b6108d957600080fd5b8360096000600481106108ef576108ee611710565b5b0160006101000a81548173ffffffffffffffffffffffffffffffffffffffff021916908373ffffffffffffffffffffffffffffffffffffffff16021790555082600960016004811061094457610943611710565b5b0160006101000a81548173ffffffffffffffffffffffffffffffffffffffff021916908373ffffffffffffffffffffffffffffffffffffffff16021790555081600960026004811061099957610998611710565b5b0160006101000a81548173ffffffffffffffffffffffffffffffffffffffff021916908373ffffffffffffffffffffffffffffffffffffffff1602179055508060096003600481106109ee576109ed611710565b5b0160006101000a81548173ffffffffffffffffffffffffffffffffffffffff021916908373ffffffffffffffffffffffffffffffffffffffff16021790555050505050565b60008054906101000a900473ffffffffffffffffffffffffffffffffffffffff1673ffffffffffffffffffffffffffffffffffffffff163373ffffffffffffffffffffffffffffffffffffffff1614610a8b57600080fd5b836005600060048110610aa157610aa0611710565b5b0181905550826005600160048110610abc57610abb611710565b5b0181905550816005600260048110610ad757610ad6611710565b5b018190555050505050565b60008054906101000a900473ffffffffffffffffffffffffffffffffffffffff1673ffffffffffffffffffffffffffffffffffffffff163373ffffffffffffffffffffffffffffffffffffffff1614610b3a57600080fd5b6000600160009054906101000a900473ffffffffffffffffffffffffffffffffffffffff1673ffffffffffffffffffffffffffffffffffffffff166370a08231306040518263ffffffff1660e01b8152600401610b97919061138b565b602060405180830381865afa158015610bb4573d6000803e3d6000fd5b505050506040513d601f19601f82011682018060405250810190610bd891906119a7565b9050600160009054906101000a900473ffffffffffffffffffffffffffffffffffffffff1673ffffffffffffffffffffffffffffffffffffffff1663a9059cbb33836040518363ffffffff1660e01b8152600401610c379291906119d4565b6020604051808303816000875af1158015610c56573d6000803e3d6000fd5b505050506040513d601f19601f82011682018060405250810190610c7a9190611965565b5050565b60008054906101000a900473ffffffffffffffffffffffffffffffffffffffff1673ffffffffffffffffffffffffffffffffffffffff163373ffffffffffffffffffffffffffffffffffffffff1614610cd657600080fd5b80600160006101000a81548173ffffffffffffffffffffffffffffffffffffffff021916908373ffffffffffffffffffffffffffffffffffffffff16021790555050565b60036020528060005260406000206000915090505481565b60008054906101000a900473ffffffffffffffffffffffffffffffffffffffff1681565b60025481565b60008054906101000a900473ffffffffffffffffffffffffffffffffffffffff1673ffffffffffffffffffffffffffffffffffffffff163373ffffffffffffffffffffffffffffffffffffffff1614610db457600080fd5b60005b8151811015610e4557600160046000848481518110610dd957610dd8611710565b5b602002602001015173ffffffffffffffffffffffffffffffffffffffff1673ffffffffffffffffffffffffffffffffffffffff16815260200190815260200160002060006101000a81548160ff0219169083151502179055508080610e3d9061176e565b915050610db7565b5050565b600073ffffffffffffffffffffffffffffffffffffffff166009600060048110610e7657610e75611710565b5b0160009054906101000a900473ffffffffffffffffffffffffffffffffffffffff1673ffffffffffffffffffffffffffffffffffffffff1614158015610f1f5750600073ffffffffffffffffffffffffffffffffffffffff166009600160048110610ee457610ee3611710565b5b0160009054906101000a900473ffffffffffffffffffffffffffffffffffffffff1673ffffffffffffffffffffffffffffffffffffffff1614155b8015610f8e5750600073ffffffffffffffffffffffffffffffffffffffff166009600260048110610f5357610f52611710565b5b0160009054906101000a900473ffffffffffffffffffffffffffffffffffffffff1673ffffffffffffffffffffffffffffffffffffffff1614155b8015610ffd5750600073ffffffffffffffffffffffffffffffffffffffff166009600360048110610fc257610fc1611710565b5b0160009054906101000a900473ffffffffffffffffffffffffffffffffffffffff1673ffffffffffffffffffffffffffffffffffffffff1614155b61100657600080fd5b600560006004811061101b5761101a611710565b5b01548110156110de57600960006004811061103957611038611710565b5b0160009054906101000a900473ffffffffffffffffffffffffffffffffffffffff1673ffffffffffffffffffffffffffffffffffffffff166340c10f1983836040518363ffffffff1660e01b81526004016110959291906119d4565b6020604051808303816000875af11580156110b4573d6000803e3d6000fd5b505050506040513d601f19601f820116820180604052508101906110d89190611965565b50611346565b60056001600481106110f3576110f2611710565b5b01548110156111b657600960016004811061111157611110611710565b5b0160009054906101000a900473ffffffffffffffffffffffffffffffffffffffff1673ffffffffffffffffffffffffffffffffffffffff166340c10f1983836040518363ffffffff1660e01b815260040161116d9291906119d4565b6020604051808303816000875af115801561118c573d6000803e3d6000fd5b505050506040513d601f19601f820116820180604052508101906111b09190611965565b50611345565b60056002600481106111cb576111ca611710565b5b015481101561128e5760096002600481106111e9576111e8611710565b5b0160009054906101000a900473ffffffffffffffffffffffffffffffffffffffff1673ffffffffffffffffffffffffffffffffffffffff166340c10f1983836040518363ffffffff1660e01b81526004016112459291906119d4565b6020604051808303816000875af1158015611264573d6000803e3d6000fd5b505050506040513d601f19601f820116820180604052508101906112889190611965565b50611344565b60096003600481106112a3576112a2611710565b5b0160009054906101000a900473ffffffffffffffffffffffffffffffffffffffff1673ffffffffffffffffffffffffffffffffffffffff166340c10f1983836040518363ffffffff1660e01b81526004016112ff9291906119d4565b6020604051808303816000875af115801561131e573d6000803e3d6000fd5b505050506040513d601f19601f820116820180604052508101906113429190611965565b505b5b5b5050565b600073ffffffffffffffffffffffffffffffffffffffff82169050919050565b60006113758261134a565b9050919050565b6113858161136a565b82525050565b60006020820190506113a0600083018461137c565b92915050565b6000604051905090565b600080fd5b600080fd5b600080fd5b6000601f19601f8301169050919050565b7f4e487b7100000000000000000000000000000000000000000000000000000000600052604160045260246000fd5b611408826113bf565b810181811067ffffffffffffffff82111715611427576114266113d0565b5b80604052505050565b600061143a6113a6565b905061144682826113ff565b919050565b600067ffffffffffffffff821115611466576114656113d0565b5b602082029050602081019050919050565b600080fd5b6114858161136a565b811461149057600080fd5b50565b6000813590506114a28161147c565b92915050565b60006114bb6114b68461144b565b611430565b905080838252602082019050602084028301858111156114de576114dd611477565b5b835b8181101561150757806114f38882611493565b8452602084019350506020810190506114e0565b5050509392505050565b600082601f830112611526576115256113ba565b5b81356115368482602086016114a8565b91505092915050565b600060208284031215611555576115546113b0565b5b600082013567ffffffffffffffff811115611573576115726113b5565b5b61157f84828501611511565b91505092915050565b6000819050919050565b61159b81611588565b81146115a657600080fd5b50565b6000813590506115b881611592565b92915050565b6000602082840312156115d4576115d36113b0565b5b60006115e2848285016115a9565b91505092915050565b60008060008060808587031215611605576116046113b0565b5b600061161387828801611493565b945050602061162487828801611493565b935050604061163587828801611493565b925050606061164687828801611493565b91505092959194509250565b6000806000806080858703121561166c5761166b6113b0565b5b600061167a878288016115a9565b945050602061168b878288016115a9565b935050604061169c878288016115a9565b92505060606116ad878288016115a9565b91505092959194509250565b6000602082840312156116cf576116ce6113b0565b5b60006116dd84828501611493565b91505092915050565b6116ef81611588565b82525050565b600060208201905061170a60008301846116e6565b92915050565b7f4e487b7100000000000000000000000000000000000000000000000000000000600052603260045260246000fd5b7f4e487b7100000000000000000000000000000000000000000000000000000000600052601160045260246000fd5b600061177982611588565b91507fffffffffffffffffffffffffffffffffffffffffffffffffffffffffffffffff8214156117ac576117ab61173f565b5b600182019050919050565b600082825260208201905092915050565b7f77686974656c697374206f6e6c79000000000000000000000000000000000000600082015250565b60006117fe600e836117b7565b9150611809826117c8565b602082019050919050565b6000602082019050818103600083015261182d816117f1565b9050919050565b600061183f82611588565b915061184a83611588565b9250827fffffffffffffffffffffffffffffffffffffffffffffffffffffffffffffffff0382111561187f5761187e61173f565b5b828201905092915050565b7f4d415820414d4f554e5400000000000000000000000000000000000000000000600082015250565b60006118c0600a836117b7565b91506118cb8261188a565b602082019050919050565b600060208201905081810360008301526118ef816118b3565b9050919050565b600060608201905061190b600083018661137c565b611918602083018561137c565b61192560408301846116e6565b949350505050565b60008115159050919050565b6119428161192d565b811461194d57600080fd5b50565b60008151905061195f81611939565b92915050565b60006020828403121561197b5761197a6113b0565b5b600061198984828501611950565b91505092915050565b6000815190506119a181611592565b92915050565b6000602082840312156119bd576119bc6113b0565b5b60006119cb84828501611992565b91505092915050565b60006040820190506119e9600083018561137c565b6119f660208301846116e6565b939250505056fea26469706673582212203b1b19e650dbdb56fb41b26d0ef280dcea73b7918e86c8227b3902a9dfbde1f264736f6c634300080a0033",
  "immutableReferences": {},
  "source": "// SPDX-License-Identifier: MIT\npragma solidity 0.8.10;\n\nimport \"./interfaces/IERC20.sol\";\n\ncontract Invest {\n\n    address public owner;\n    address public coin;\n    uint256 public MAXAMOUNT = 0;\n    mapping(address => uint256) public amountPaid;\n    mapping(address => bool) whitelist;\n    uint256[4] lootBox;\n    address[4] tokens;\n\n    constructor(address _coin, uint256 _maxAmount, uint256 _rare, uint256 _epic, uint256 _legendary) {\n        owner = msg.sender;\n        coin = _coin;\n        MAXAMOUNT = _maxAmount;\n        lootBox[0] = _rare;\n        lootBox[1] = _epic;\n        lootBox[2] = _legendary;\n        // lootBox[3] = _cosmic;\n    }\n\n    modifier onlyOwner {\n      require(msg.sender == owner);\n      _;\n    }\n\n    modifier tokensSet{\n        require(tokens[0] != address(0) && tokens[1] != address(0) && tokens[2] != address(0) && tokens[3] != address(0));\n        _;\n    }\n    modifier isWhitelisted{\n        require( whitelist[msg.sender], \"whitelist only\");\n        _;\n    }\n\n\n    function setCoin (address _coin) external onlyOwner{\n        coin = _coin;\n    }\n\n    function setWhitelist (address[] memory _users) external onlyOwner{\n        for (uint256 _user = 0; _user < _users.length; _user++) {\n            whitelist[_users[_user]] = true;            \n        }\n    }\n    \n    function removeWhitelist (address[] memory  _users) external onlyOwner{\n        for (uint256 _user = 0; _user < _users.length; _user++) {\n            whitelist[_users[_user]] = false;            \n        }\n    }\n\n    function setMaxAmount (uint256 _maxAmount) external onlyOwner{\n        MAXAMOUNT = _maxAmount;\n    }\n\n    function setLootBoxValue(uint256 _rare, uint256 _epic, uint256 _legendary, uint256 _cosmic) external onlyOwner{\n        lootBox[0] = _rare;\n        lootBox[1] = _epic;\n        lootBox[2] = _legendary;\n        // lootBox[3] = _cosmic;\n    }\n\n    function setTokens(address _rare, address _epic, address _legendary, address _cosmic) external onlyOwner{\n        require(_rare != address(0) && _epic != address(0) && _legendary != address(0) && _cosmic != address(0));\n        tokens[0] = _rare;\n        tokens[1] = _epic;\n        tokens[2] = _legendary;\n        tokens[3] = _cosmic;\n    }\n\n    function invest(uint256 _amount) external isWhitelisted tokensSet{\n        require((amountPaid[msg.sender] + _amount) <= MAXAMOUNT,\"MAX AMOUNT\");\n        IERC20(coin).transferFrom(msg.sender, address(this), _amount);\n        amountPaid[msg.sender] = amountPaid[msg.sender] + _amount;\n        _mintToken(msg.sender, _amount);       \n    }\n\n    function _mintToken(address _to, uint256 _amount) internal tokensSet{\n        if(_amount < lootBox[0]){\n            IERC20(tokens[0]).mint(_to, _amount);\n        } else if(_amount < lootBox[1]){\n            IERC20(tokens[1]).mint(_to, _amount);\n        } else if(_amount < lootBox[2]){\n            IERC20(tokens[2]).mint(_to, _amount);\n        } else {\n            IERC20(tokens[3]).mint(_to, _amount);\n        }\n    }\n\n    function withdrawCoin() external onlyOwner{\n        uint256 amount = IERC20(coin).balanceOf(address(this));\n        IERC20(coin).transfer(msg.sender, amount);\n    }\n}\n",
  "sourcePath": "/home/badass/Documents/Cosmic/private_sale/contracts/Invest.sol",
  "compiler": {
    "name": "solc",
    "version": "0.8.10+commit.fc410830.Emscripten.clang"
  },
  "schemaVersion": "3.4.4",
  "updatedAt": "2022-01-15T08:06:20.646Z",
  "networkType": "ethereum",
  "devdoc": {
    "kind": "dev",
    "methods": {},
    "version": 1
  },
  "userdoc": {
    "kind": "user",
    "methods": {},
    "version": 1
  }
}